{
  "_format": "hh-sol-artifact-1",
  "contractName": "MultiBank",
  "sourceName": "contracts/MultiBank.sol",
  "abi": [
    {
      "inputs": [],
      "stateMutability": "nonpayable",
      "type": "constructor"
    },
    {
      "anonymous": false,
      "inputs": [
        {
          "indexed": true,
          "internalType": "address",
          "name": "account",
          "type": "address"
        },
        {
          "indexed": true,
          "internalType": "address",
          "name": "operator",
          "type": "address"
        },
        {
          "indexed": false,
          "internalType": "bool",
          "name": "approved",
          "type": "bool"
        }
      ],
      "name": "ApprovalForAll",
      "type": "event"
    },
    {
      "anonymous": false,
      "inputs": [
        {
          "indexed": true,
          "internalType": "address",
          "name": "previousOwner",
          "type": "address"
        },
        {
          "indexed": true,
          "internalType": "address",
          "name": "newOwner",
          "type": "address"
        }
      ],
      "name": "OwnershipTransferred",
      "type": "event"
    },
    {
      "anonymous": false,
      "inputs": [
        {
          "indexed": true,
          "internalType": "address",
          "name": "operator",
          "type": "address"
        },
        {
          "indexed": true,
          "internalType": "address",
          "name": "from",
          "type": "address"
        },
        {
          "indexed": true,
          "internalType": "address",
          "name": "to",
          "type": "address"
        },
        {
          "indexed": false,
          "internalType": "uint256[]",
          "name": "ids",
          "type": "uint256[]"
        },
        {
          "indexed": false,
          "internalType": "uint256[]",
          "name": "values",
          "type": "uint256[]"
        }
      ],
      "name": "TransferBatch",
      "type": "event"
    },
    {
      "anonymous": false,
      "inputs": [
        {
          "indexed": false,
          "internalType": "address",
          "name": "_from",
          "type": "address"
        },
        {
          "indexed": false,
          "internalType": "address",
          "name": "_destAddress",
          "type": "address"
        },
        {
          "indexed": false,
          "internalType": "uint256",
          "name": "_amount",
          "type": "uint256"
        }
      ],
      "name": "TransferSent",
      "type": "event"
    },
    {
      "anonymous": false,
      "inputs": [
        {
          "indexed": true,
          "internalType": "address",
          "name": "operator",
          "type": "address"
        },
        {
          "indexed": true,
          "internalType": "address",
          "name": "from",
          "type": "address"
        },
        {
          "indexed": true,
          "internalType": "address",
          "name": "to",
          "type": "address"
        },
        {
          "indexed": false,
          "internalType": "uint256",
          "name": "id",
          "type": "uint256"
        },
        {
          "indexed": false,
          "internalType": "uint256",
          "name": "value",
          "type": "uint256"
        }
      ],
      "name": "TransferSingle",
      "type": "event"
    },
    {
      "anonymous": false,
      "inputs": [
        {
          "indexed": false,
          "internalType": "string",
          "name": "value",
          "type": "string"
        },
        {
          "indexed": true,
          "internalType": "uint256",
          "name": "id",
          "type": "uint256"
        }
      ],
      "name": "URI",
      "type": "event"
    },
    {
      "inputs": [],
      "name": "CREDIT",
      "outputs": [
        {
          "internalType": "uint256",
          "name": "",
          "type": "uint256"
        }
      ],
      "stateMutability": "view",
      "type": "function"
    },
    {
      "inputs": [],
      "name": "DEBET",
      "outputs": [
        {
          "internalType": "uint256",
          "name": "",
          "type": "uint256"
        }
      ],
      "stateMutability": "view",
      "type": "function"
    },
    {
      "inputs": [
        {
          "internalType": "address",
          "name": "_toAdd",
          "type": "address"
        }
      ],
      "name": "addAuthorized",
      "outputs": [],
      "stateMutability": "nonpayable",
      "type": "function"
    },
    {
      "inputs": [
        {
          "internalType": "address",
          "name": "",
          "type": "address"
        }
      ],
      "name": "authorized",
      "outputs": [
        {
          "internalType": "bool",
          "name": "",
          "type": "bool"
        }
      ],
      "stateMutability": "view",
      "type": "function"
    },
    {
      "inputs": [
        {
          "internalType": "address",
          "name": "account",
          "type": "address"
        },
        {
          "internalType": "uint256",
          "name": "id",
          "type": "uint256"
        }
      ],
      "name": "balanceOf",
      "outputs": [
        {
          "internalType": "uint256",
          "name": "",
          "type": "uint256"
        }
      ],
      "stateMutability": "view",
      "type": "function"
    },
    {
      "inputs": [
        {
          "internalType": "address[]",
          "name": "accounts",
          "type": "address[]"
        },
        {
          "internalType": "uint256[]",
          "name": "ids",
          "type": "uint256[]"
        }
      ],
      "name": "balanceOfBatch",
      "outputs": [
        {
          "internalType": "uint256[]",
          "name": "",
          "type": "uint256[]"
        }
      ],
      "stateMutability": "view",
      "type": "function"
    },
    {
      "inputs": [
        {
          "internalType": "uint256",
          "name": "amount",
          "type": "uint256"
        }
      ],
      "name": "claim",
      "outputs": [],
      "stateMutability": "nonpayable",
      "type": "function"
    },
    {
      "inputs": [],
      "name": "currentBalance",
      "outputs": [
        {
          "internalType": "uint256",
          "name": "",
          "type": "uint256"
        }
      ],
      "stateMutability": "view",
      "type": "function"
    },
    {
      "inputs": [
        {
          "internalType": "uint256",
          "name": "amount",
          "type": "uint256"
        }
      ],
      "name": "deposit",
      "outputs": [],
      "stateMutability": "nonpayable",
      "type": "function"
    },
    {
      "inputs": [
        {
          "internalType": "address payable",
          "name": "_to",
          "type": "address"
        }
      ],
      "name": "faucet",
      "outputs": [],
      "stateMutability": "nonpayable",
      "type": "function"
    },
    {
      "inputs": [],
      "name": "faucetAddress",
      "outputs": [
        {
          "internalType": "address",
          "name": "",
          "type": "address"
        }
      ],
      "stateMutability": "view",
      "type": "function"
    },
    {
      "inputs": [],
      "name": "faucetAmount",
      "outputs": [
        {
          "internalType": "uint256",
          "name": "",
          "type": "uint256"
        }
      ],
      "stateMutability": "view",
      "type": "function"
    },
    {
      "inputs": [
        {
          "internalType": "address",
          "name": "addr",
          "type": "address"
        }
      ],
      "name": "getAddressAuthorized",
      "outputs": [
        {
          "internalType": "bool",
          "name": "",
          "type": "bool"
        }
      ],
      "stateMutability": "view",
      "type": "function"
    },
    {
      "inputs": [],
      "name": "getAddressAuthorizedArray",
      "outputs": [
        {
          "internalType": "address[]",
          "name": "",
          "type": "address[]"
        }
      ],
      "stateMutability": "view",
      "type": "function"
    },
    {
      "inputs": [],
      "name": "getBankTokenAddress",
      "outputs": [
        {
          "internalType": "address",
          "name": "",
          "type": "address"
        }
      ],
      "stateMutability": "view",
      "type": "function"
    },
    {
      "inputs": [
        {
          "internalType": "address",
          "name": "account",
          "type": "address"
        },
        {
          "internalType": "address",
          "name": "operator",
          "type": "address"
        }
      ],
      "name": "isApprovedForAll",
      "outputs": [
        {
          "internalType": "bool",
          "name": "",
          "type": "bool"
        }
      ],
      "stateMutability": "view",
      "type": "function"
    },
    {
      "inputs": [],
      "name": "owner",
      "outputs": [
        {
          "internalType": "address",
          "name": "",
          "type": "address"
        }
      ],
      "stateMutability": "view",
      "type": "function"
    },
    {
      "inputs": [
        {
          "internalType": "address",
          "name": "_toRemove",
          "type": "address"
        }
      ],
      "name": "removeAuthorized",
      "outputs": [],
      "stateMutability": "nonpayable",
      "type": "function"
    },
    {
      "inputs": [],
      "name": "renounceOwnership",
      "outputs": [],
      "stateMutability": "nonpayable",
      "type": "function"
    },
    {
      "inputs": [
        {
          "internalType": "address",
          "name": "from",
          "type": "address"
        },
        {
          "internalType": "address",
          "name": "to",
          "type": "address"
        },
        {
          "internalType": "uint256[]",
          "name": "ids",
          "type": "uint256[]"
        },
        {
          "internalType": "uint256[]",
          "name": "amounts",
          "type": "uint256[]"
        },
        {
          "internalType": "bytes",
          "name": "data",
          "type": "bytes"
        }
      ],
      "name": "safeBatchTransferFrom",
      "outputs": [],
      "stateMutability": "nonpayable",
      "type": "function"
    },
    {
      "inputs": [
        {
          "internalType": "address",
          "name": "from",
          "type": "address"
        },
        {
          "internalType": "address",
          "name": "to",
          "type": "address"
        },
        {
          "internalType": "uint256",
          "name": "id",
          "type": "uint256"
        },
        {
          "internalType": "uint256",
          "name": "amount",
          "type": "uint256"
        },
        {
          "internalType": "bytes",
          "name": "data",
          "type": "bytes"
        }
      ],
      "name": "safeTransferFrom",
      "outputs": [],
      "stateMutability": "nonpayable",
      "type": "function"
    },
    {
      "inputs": [
        {
          "internalType": "address",
          "name": "operator",
          "type": "address"
        },
        {
          "internalType": "bool",
          "name": "approved",
          "type": "bool"
        }
      ],
      "name": "setApprovalForAll",
      "outputs": [],
      "stateMutability": "nonpayable",
      "type": "function"
    },
    {
      "inputs": [
        {
          "internalType": "address",
          "name": "newTokenAddress",
          "type": "address"
        }
      ],
      "name": "setBankToken",
      "outputs": [],
      "stateMutability": "nonpayable",
      "type": "function"
    },
    {
      "inputs": [
        {
          "internalType": "address",
          "name": "addr",
          "type": "address"
        }
      ],
      "name": "setFaucetAddress",
      "outputs": [],
      "stateMutability": "nonpayable",
      "type": "function"
    },
    {
      "inputs": [
        {
          "internalType": "uint256",
          "name": "amount",
          "type": "uint256"
        }
      ],
      "name": "setFaucetAmount",
      "outputs": [],
      "stateMutability": "nonpayable",
      "type": "function"
    },
    {
      "inputs": [
        {
          "internalType": "bytes4",
          "name": "interfaceId",
          "type": "bytes4"
        }
      ],
      "name": "supportsInterface",
      "outputs": [
        {
          "internalType": "bool",
          "name": "",
          "type": "bool"
        }
      ],
      "stateMutability": "view",
      "type": "function"
    },
    {
      "inputs": [
        {
          "internalType": "contract IERC20",
          "name": "token",
          "type": "address"
        },
        {
          "internalType": "address",
          "name": "from",
          "type": "address"
        },
        {
          "internalType": "address",
          "name": "to",
          "type": "address"
        },
        {
          "internalType": "uint256",
          "name": "amount",
          "type": "uint256"
        }
      ],
      "name": "transferERC20",
      "outputs": [],
      "stateMutability": "nonpayable",
      "type": "function"
    },
    {
      "inputs": [
        {
          "internalType": "address",
          "name": "newOwner",
          "type": "address"
        }
      ],
      "name": "transferOwnership",
      "outputs": [],
      "stateMutability": "nonpayable",
      "type": "function"
    },
    {
      "inputs": [
        {
          "internalType": "uint256",
          "name": "",
          "type": "uint256"
        }
      ],
      "name": "uri",
      "outputs": [
        {
          "internalType": "string",
          "name": "",
          "type": "string"
        }
      ],
      "stateMutability": "view",
      "type": "function"
    },
    {
      "stateMutability": "payable",
      "type": "receive"
    }
  ],
  "bytecode": "0x60806040523480156200001157600080fd5b506040518060200160405280600081525062000042620000366200009b60201b60201c565b620000a360201b60201c565b62000053816200016760201b60201c565b5033600660006101000a81548173ffffffffffffffffffffffffffffffffffffffff021916908373ffffffffffffffffffffffffffffffffffffffff16021790555062000298565b600033905090565b60008060009054906101000a900473ffffffffffffffffffffffffffffffffffffffff169050816000806101000a81548173ffffffffffffffffffffffffffffffffffffffff021916908373ffffffffffffffffffffffffffffffffffffffff1602179055508173ffffffffffffffffffffffffffffffffffffffff168173ffffffffffffffffffffffffffffffffffffffff167f8be0079c531659141344cd1fd0a4f28419497f9722a3daafe3b4186f6b6457e060405160405180910390a35050565b80600390805190602001906200017f92919062000183565b5050565b828054620001919062000233565b90600052602060002090601f016020900481019282620001b5576000855562000201565b82601f10620001d057805160ff191683800117855562000201565b8280016001018555821562000201579182015b8281111562000200578251825591602001919060010190620001e3565b5b50905062000210919062000214565b5090565b5b808211156200022f57600081600090555060010162000215565b5090565b600060028204905060018216806200024c57607f821691505b6020821081141562000263576200026262000269565b5b50919050565b7f4e487b7100000000000000000000000000000000000000000000000000000000600052602260045260246000fd5b614ce580620002a86000396000f3fe6080604052600436106101c55760003560e01c80639c281430116100f7578063ce845d1d11610095578063e985e9c511610064578063e985e9c514610648578063f1e0510e14610685578063f242432a146106ae578063f2fde38b146106d7576101cc565b8063ce845d1d146105a0578063cf1c316a146105cb578063da3e8ce4146105f4578063e688013f1461061d576101cc565b8063b86d1d63116100d1578063b86d1d63146104d2578063b9181611146104fb578063ba884fd614610538578063cb05240014610575576101cc565b80639c28143014610455578063a22cb46514610480578063b6b55f25146104a9576101cc565b80634e1273f411610164578063715018a61161013e578063715018a6146103bf57806381d2fd9c146103d657806384301632146103ff5780638da5cb5b1461042a576101cc565b80634e1273f41461032e578063594caf951461036b57806366d792cd14610396576101cc565b8063118346d3116101a0578063118346d3146102885780632eb2c2d6146102b3578063379607f5146102dc578063485d7d9414610305576101cc565b8062fdd58e146101d157806301ffc9a71461020e5780630e89341c1461024b576101cc565b366101cc57005b600080fd5b3480156101dd57600080fd5b506101f860048036038101906101f3919061371c565b610700565b60405161020591906141ce565b60405180910390f35b34801561021a57600080fd5b50610235600480360381019061023091906137ed565b6107ca565b6040516102429190613f11565b60405180910390f35b34801561025757600080fd5b50610272600480360381019061026d91906138a2565b6108ac565b60405161027f9190613f2c565b60405180910390f35b34801561029457600080fd5b5061029d610940565b6040516102aa9190613d59565b60405180910390f35b3480156102bf57600080fd5b506102da60048036038101906102d59190613592565b61096a565b005b3480156102e857600080fd5b5061030360048036038101906102fe91906138a2565b610a0b565b005b34801561031157600080fd5b5061032c60048036038101906103279190613504565b610c0c565b005b34801561033a57600080fd5b5061035560048036038101906103509190613758565b610d5f565b6040516103629190613eb8565b60405180910390f35b34801561037757600080fd5b50610380610f10565b60405161038d9190613e96565b60405180910390f35b3480156103a257600080fd5b506103bd60048036038101906103b89190613504565b610f9e565b005b3480156103cb57600080fd5b506103d461105e565b005b3480156103e257600080fd5b506103fd60048036038101906103f891906138a2565b6110e6565b005b34801561040b57600080fd5b5061041461116c565b60405161042191906141ce565b60405180910390f35b34801561043657600080fd5b5061043f611171565b60405161044c9190613d59565b60405180910390f35b34801561046157600080fd5b5061046a61119a565b60405161047791906141ce565b60405180910390f35b34801561048c57600080fd5b506104a760048036038101906104a291906136e0565b6111a0565b005b3480156104b557600080fd5b506104d060048036038101906104cb91906138a2565b6111b6565b005b3480156104de57600080fd5b506104f960048036038101906104f4919061352d565b6113b7565b005b34801561050757600080fd5b50610522600480360381019061051d9190613504565b611566565b60405161052f9190613f11565b60405180910390f35b34801561054457600080fd5b5061055f600480360381019061055a9190613504565b611586565b60405161056c9190613f11565b60405180910390f35b34801561058157600080fd5b5061058a6115dc565b6040516105979190613d59565b60405180910390f35b3480156105ac57600080fd5b506105b5611602565b6040516105c291906141ce565b60405180910390f35b3480156105d757600080fd5b506105f260048036038101906105ed9190613504565b611713565b005b34801561060057600080fd5b5061061b6004803603810190610616919061383f565b6118de565b005b34801561062957600080fd5b50610632611c11565b60405161063f91906141ce565b60405180910390f35b34801561065457600080fd5b5061066f600480360381019061066a9190613556565b611c16565b60405161067c9190613f11565b60405180910390f35b34801561069157600080fd5b506106ac60048036038101906106a79190613504565b611caa565b005b3480156106ba57600080fd5b506106d560048036038101906106d09190613651565b611d6a565b005b3480156106e357600080fd5b506106fe60048036038101906106f99190613504565b611e0b565b005b60008073ffffffffffffffffffffffffffffffffffffffff168373ffffffffffffffffffffffffffffffffffffffff161415610771576040517f08c379a000000000000000000000000000000000000000000000000000000000815260040161076890613f8e565b60405180910390fd5b6001600083815260200190815260200160002060008473ffffffffffffffffffffffffffffffffffffffff1673ffffffffffffffffffffffffffffffffffffffff16815260200190815260200160002054905092915050565b60007fd9b67a26000000000000000000000000000000000000000000000000000000007bffffffffffffffffffffffffffffffffffffffffffffffffffffffff1916827bffffffffffffffffffffffffffffffffffffffffffffffffffffffff1916148061089557507f0e89341c000000000000000000000000000000000000000000000000000000007bffffffffffffffffffffffffffffffffffffffffffffffffffffffff1916827bffffffffffffffffffffffffffffffffffffffffffffffffffffffff1916145b806108a557506108a482611f03565b5b9050919050565b6060600380546108bb906144ce565b80601f01602080910402602001604051908101604052809291908181526020018280546108e7906144ce565b80156109345780601f1061090957610100808354040283529160200191610934565b820191906000526020600020905b81548152906001019060200180831161091757829003601f168201915b50505050509050919050565b6000600860009054906101000a900473ffffffffffffffffffffffffffffffffffffffff16905090565b610972611f6d565b73ffffffffffffffffffffffffffffffffffffffff168573ffffffffffffffffffffffffffffffffffffffff1614806109b857506109b7856109b2611f6d565b611c16565b5b6109f7576040517f08c379a00000000000000000000000000000000000000000000000000000000081526004016109ee9061404e565b60405180910390fd5b610a048585858585611f75565b5050505050565b600460003373ffffffffffffffffffffffffffffffffffffffff1673ffffffffffffffffffffffffffffffffffffffff16815260200190815260200160002060009054906101000a900460ff1680610a9557503373ffffffffffffffffffffffffffffffffffffffff16610a7d611171565b73ffffffffffffffffffffffffffffffffffffffff16145b610ad4576040517f08c379a0000000000000000000000000000000000000000000000000000000008152600401610acb9061410e565b60405180910390fd5b610b02600860009054906101000a900473ffffffffffffffffffffffffffffffffffffffff163033846118de565b60003073ffffffffffffffffffffffffffffffffffffffff1662fdd58e3360006040518363ffffffff1660e01b8152600401610b3f929190613e6d565b60206040518083038186803b158015610b5757600080fd5b505afa158015610b6b573d6000803e3d6000fd5b505050506040513d601f19601f82011682018060405250810190610b8f91906138cb565b90506000811115610beb57818110610bb257610bad336000846122e6565b610be6565b610bd93360018385610bc491906143c0565b6040518060200160405280600081525061252f565b610be5336000836122e6565b5b610c08565b610c07336001846040518060200160405280600081525061252f565b5b5050565b610c14611f6d565b73ffffffffffffffffffffffffffffffffffffffff16610c32611171565b73ffffffffffffffffffffffffffffffffffffffff1614610c88576040517f08c379a0000000000000000000000000000000000000000000000000000000008152600401610c7f906140ee565b60405180910390fd5b600073ffffffffffffffffffffffffffffffffffffffff168173ffffffffffffffffffffffffffffffffffffffff161415610cc257600080fd5b3373ffffffffffffffffffffffffffffffffffffffff168173ffffffffffffffffffffffffffffffffffffffff161415610cfb57600080fd5b6000600460008373ffffffffffffffffffffffffffffffffffffffff1673ffffffffffffffffffffffffffffffffffffffff16815260200190815260200160002060006101000a81548160ff021916908315150217905550610d5c816126e1565b50565b60608151835114610da5576040517f08c379a0000000000000000000000000000000000000000000000000000000008152600401610d9c9061416e565b60405180910390fd5b6000835167ffffffffffffffff811115610de8577f4e487b7100000000000000000000000000000000000000000000000000000000600052604160045260246000fd5b604051908082528060200260200182016040528015610e165781602001602082028036833780820191505090505b50905060005b8451811015610f0557610eaf858281518110610e61577f4e487b7100000000000000000000000000000000000000000000000000000000600052603260045260246000fd5b6020026020010151858381518110610ea2577f4e487b7100000000000000000000000000000000000000000000000000000000600052603260045260246000fd5b6020026020010151610700565b828281518110610ee8577f4e487b7100000000000000000000000000000000000000000000000000000000600052603260045260246000fd5b60200260200101818152505080610efe90614531565b9050610e1c565b508091505092915050565b60606005805480602002602001604051908101604052809291908181526020018280548015610f9457602002820191906000526020600020905b8160009054906101000a900473ffffffffffffffffffffffffffffffffffffffff1673ffffffffffffffffffffffffffffffffffffffff1681526020019060010190808311610f4a575b5050505050905090565b610fa6611f6d565b73ffffffffffffffffffffffffffffffffffffffff16610fc4611171565b73ffffffffffffffffffffffffffffffffffffffff161461101a576040517f08c379a0000000000000000000000000000000000000000000000000000000008152600401611011906140ee565b60405180910390fd5b80600860006101000a81548173ffffffffffffffffffffffffffffffffffffffff021916908373ffffffffffffffffffffffffffffffffffffffff16021790555050565b611066611f6d565b73ffffffffffffffffffffffffffffffffffffffff16611084611171565b73ffffffffffffffffffffffffffffffffffffffff16146110da576040517f08c379a00000000000000000000000000000000000000000000000000000000081526004016110d1906140ee565b60405180910390fd5b6110e4600061291c565b565b6110ee611f6d565b73ffffffffffffffffffffffffffffffffffffffff1661110c611171565b73ffffffffffffffffffffffffffffffffffffffff1614611162576040517f08c379a0000000000000000000000000000000000000000000000000000000008152600401611159906140ee565b60405180910390fd5b8060078190555050565b600081565b60008060009054906101000a900473ffffffffffffffffffffffffffffffffffffffff16905090565b60075481565b6111b26111ab611f6d565b83836129e0565b5050565b600460003373ffffffffffffffffffffffffffffffffffffffff1673ffffffffffffffffffffffffffffffffffffffff16815260200190815260200160002060009054906101000a900460ff168061124057503373ffffffffffffffffffffffffffffffffffffffff16611228611171565b73ffffffffffffffffffffffffffffffffffffffff16145b61127f576040517f08c379a00000000000000000000000000000000000000000000000000000000081526004016112769061410e565b60405180910390fd5b6112ad600860009054906101000a900473ffffffffffffffffffffffffffffffffffffffff163330846118de565b60003073ffffffffffffffffffffffffffffffffffffffff1662fdd58e3360016040518363ffffffff1660e01b81526004016112ea929190613e6d565b60206040518083038186803b15801561130257600080fd5b505afa158015611316573d6000803e3d6000fd5b505050506040513d601f19601f8201168201806040525081019061133a91906138cb565b905060008110611396578181111561135d57611358336001846122e6565b611391565b611384336000838561136f91906143c0565b6040518060200160405280600081525061252f565b611390336001836122e6565b5b6113b3565b6113b2336000846040518060200160405280600081525061252f565b5b5050565b600660009054906101000a900473ffffffffffffffffffffffffffffffffffffffff1673ffffffffffffffffffffffffffffffffffffffff163373ffffffffffffffffffffffffffffffffffffffff1614611447576040517f08c379a000000000000000000000000000000000000000000000000000000000815260040161143e9061406e565b60405180910390fd5b80600460008273ffffffffffffffffffffffffffffffffffffffff1673ffffffffffffffffffffffffffffffffffffffff16815260200190815260200160002060009054906101000a900460ff166114d4576040517f08c379a00000000000000000000000000000000000000000000000000000000081526004016114cb9061400e565b60405180910390fd5b600754471015611519576040517f08c379a00000000000000000000000000000000000000000000000000000000081526004016115109061412e565b60405180910390fd5b8173ffffffffffffffffffffffffffffffffffffffff166108fc6007549081150290604051600060405180830381858888f19350505050158015611561573d6000803e3d6000fd5b505050565b60046020528060005260406000206000915054906101000a900460ff1681565b6000600460008373ffffffffffffffffffffffffffffffffffffffff1673ffffffffffffffffffffffffffffffffffffffff16815260200190815260200160002060009054906101000a900460ff169050919050565b600660009054906101000a900473ffffffffffffffffffffffffffffffffffffffff1681565b60008073ffffffffffffffffffffffffffffffffffffffff16600860009054906101000a900473ffffffffffffffffffffffffffffffffffffffff1673ffffffffffffffffffffffffffffffffffffffff161461170b57600860009054906101000a900473ffffffffffffffffffffffffffffffffffffffff1673ffffffffffffffffffffffffffffffffffffffff166370a08231306040518263ffffffff1660e01b81526004016116b49190613d59565b60206040518083038186803b1580156116cc57600080fd5b505afa1580156116e0573d6000803e3d6000fd5b505050506040513d601f19601f8201168201806040525081019061170491906138cb565b9050611710565b600090505b90565b61171b611f6d565b73ffffffffffffffffffffffffffffffffffffffff16611739611171565b73ffffffffffffffffffffffffffffffffffffffff161461178f576040517f08c379a0000000000000000000000000000000000000000000000000000000008152600401611786906140ee565b60405180910390fd5b600073ffffffffffffffffffffffffffffffffffffffff168173ffffffffffffffffffffffffffffffffffffffff1614156117c957600080fd5b600460008273ffffffffffffffffffffffffffffffffffffffff1673ffffffffffffffffffffffffffffffffffffffff16815260200190815260200160002060009054906101000a900460ff161561182057600080fd5b6001600460008373ffffffffffffffffffffffffffffffffffffffff1673ffffffffffffffffffffffffffffffffffffffff16815260200190815260200160002060006101000a81548160ff0219169083151502179055506005819080600181540180825580915050600190039060005260206000200160009091909190916101000a81548173ffffffffffffffffffffffffffffffffffffffff021916908373ffffffffffffffffffffffffffffffffffffffff16021790555050565b600460003373ffffffffffffffffffffffffffffffffffffffff1673ffffffffffffffffffffffffffffffffffffffff16815260200190815260200160002060009054906101000a900460ff168061196857503373ffffffffffffffffffffffffffffffffffffffff16611950611171565b73ffffffffffffffffffffffffffffffffffffffff16145b6119a7576040517f08c379a000000000000000000000000000000000000000000000000000000000815260040161199e9061410e565b60405180910390fd5b60008473ffffffffffffffffffffffffffffffffffffffff166370a08231856040518263ffffffff1660e01b81526004016119e29190613d59565b60206040518083038186803b1580156119fa57600080fd5b505afa158015611a0e573d6000803e3d6000fd5b505050506040513d601f19601f82011682018060405250810190611a3291906138cb565b905080821115611a77576040517f08c379a0000000000000000000000000000000000000000000000000000000008152600401611a6e9061408e565b60405180910390fd5b3073ffffffffffffffffffffffffffffffffffffffff168473ffffffffffffffffffffffffffffffffffffffff161415611b3e578473ffffffffffffffffffffffffffffffffffffffff1663a9059cbb84846040518363ffffffff1660e01b8152600401611ae6929190613e6d565b602060405180830381600087803b158015611b0057600080fd5b505af1158015611b14573d6000803e3d6000fd5b505050506040513d601f19601f82011682018060405250810190611b3891906137c4565b50611bcf565b8473ffffffffffffffffffffffffffffffffffffffff166323b872dd8585856040518463ffffffff1660e01b8152600401611b7b93929190613ddc565b602060405180830381600087803b158015611b9557600080fd5b505af1158015611ba9573d6000803e3d6000fd5b505050506040513d601f19601f82011682018060405250810190611bcd91906137c4565b505b7ffda3a3e0e1479b43cb1c701f7576187f4c4ad80768d627387e00184302f7d88e848484604051611c0293929190613ddc565b60405180910390a15050505050565b600181565b6000600260008473ffffffffffffffffffffffffffffffffffffffff1673ffffffffffffffffffffffffffffffffffffffff16815260200190815260200160002060008373ffffffffffffffffffffffffffffffffffffffff1673ffffffffffffffffffffffffffffffffffffffff16815260200190815260200160002060009054906101000a900460ff16905092915050565b611cb2611f6d565b73ffffffffffffffffffffffffffffffffffffffff16611cd0611171565b73ffffffffffffffffffffffffffffffffffffffff1614611d26576040517f08c379a0000000000000000000000000000000000000000000000000000000008152600401611d1d906140ee565b60405180910390fd5b80600660006101000a81548173ffffffffffffffffffffffffffffffffffffffff021916908373ffffffffffffffffffffffffffffffffffffffff16021790555050565b611d72611f6d565b73ffffffffffffffffffffffffffffffffffffffff168573ffffffffffffffffffffffffffffffffffffffff161480611db85750611db785611db2611f6d565b611c16565b5b611df7576040517f08c379a0000000000000000000000000000000000000000000000000000000008152600401611dee90613fee565b60405180910390fd5b611e048585858585612b4d565b5050505050565b611e13611f6d565b73ffffffffffffffffffffffffffffffffffffffff16611e31611171565b73ffffffffffffffffffffffffffffffffffffffff1614611e87576040517f08c379a0000000000000000000000000000000000000000000000000000000008152600401611e7e906140ee565b60405180910390fd5b600073ffffffffffffffffffffffffffffffffffffffff168173ffffffffffffffffffffffffffffffffffffffff161415611ef7576040517f08c379a0000000000000000000000000000000000000000000000000000000008152600401611eee90613fae565b60405180910390fd5b611f008161291c565b50565b60007f01ffc9a7000000000000000000000000000000000000000000000000000000007bffffffffffffffffffffffffffffffffffffffffffffffffffffffff1916827bffffffffffffffffffffffffffffffffffffffffffffffffffffffff1916149050919050565b600033905090565b8151835114611fb9576040517f08c379a0000000000000000000000000000000000000000000000000000000008152600401611fb09061418e565b60405180910390fd5b600073ffffffffffffffffffffffffffffffffffffffff168473ffffffffffffffffffffffffffffffffffffffff161415612029576040517f08c379a00000000000000000000000000000000000000000000000000000000081526004016120209061402e565b60405180910390fd5b6000612033611f6d565b9050612043818787878787612dec565b60005b845181101561224357600085828151811061208a577f4e487b7100000000000000000000000000000000000000000000000000000000600052603260045260246000fd5b6020026020010151905060008583815181106120cf577f4e487b7100000000000000000000000000000000000000000000000000000000600052603260045260246000fd5b6020026020010151905060006001600084815260200190815260200160002060008b73ffffffffffffffffffffffffffffffffffffffff1673ffffffffffffffffffffffffffffffffffffffff16815260200190815260200160002054905081811015612171576040517f08c379a0000000000000000000000000000000000000000000000000000000008152600401612168906140ce565b60405180910390fd5b8181036001600085815260200190815260200160002060008c73ffffffffffffffffffffffffffffffffffffffff1673ffffffffffffffffffffffffffffffffffffffff16815260200190815260200160002081905550816001600085815260200190815260200160002060008b73ffffffffffffffffffffffffffffffffffffffff1673ffffffffffffffffffffffffffffffffffffffff1681526020019081526020016000206000828254612228919061436a565b925050819055505050508061223c90614531565b9050612046565b508473ffffffffffffffffffffffffffffffffffffffff168673ffffffffffffffffffffffffffffffffffffffff168273ffffffffffffffffffffffffffffffffffffffff167f4a39dc06d4c0dbc64b70af90fd698a233a518aa5d07e595d983b8c0526c8f7fb87876040516122ba929190613eda565b60405180910390a46122d0818787878787612df4565b6122de818787878787612dfc565b505050505050565b600073ffffffffffffffffffffffffffffffffffffffff168373ffffffffffffffffffffffffffffffffffffffff161415612356576040517f08c379a000000000000000000000000000000000000000000000000000000000815260040161234d906140ae565b60405180910390fd5b6000612360611f6d565b9050600061236d84612fe3565b9050600061237a84612fe3565b905061239a83876000858560405180602001604052806000815250612dec565b60006001600087815260200190815260200160002060008873ffffffffffffffffffffffffffffffffffffffff1673ffffffffffffffffffffffffffffffffffffffff16815260200190815260200160002054905084811015612432576040517f08c379a000000000000000000000000000000000000000000000000000000000815260040161242990613fce565b60405180910390fd5b8481036001600088815260200190815260200160002060008973ffffffffffffffffffffffffffffffffffffffff1673ffffffffffffffffffffffffffffffffffffffff16815260200190815260200160002081905550600073ffffffffffffffffffffffffffffffffffffffff168773ffffffffffffffffffffffffffffffffffffffff168573ffffffffffffffffffffffffffffffffffffffff167fc3d58168c5ae7397731d063d5bbf3d657854427343f4c083240f7aacaa2d0f6289896040516125009291906141e9565b60405180910390a461252684886000868660405180602001604052806000815250612df4565b50505050505050565b600073ffffffffffffffffffffffffffffffffffffffff168473ffffffffffffffffffffffffffffffffffffffff16141561259f576040517f08c379a0000000000000000000000000000000000000000000000000000000008152600401612596906141ae565b60405180910390fd5b60006125a9611f6d565b905060006125b685612fe3565b905060006125c385612fe3565b90506125d483600089858589612dec565b846001600088815260200190815260200160002060008973ffffffffffffffffffffffffffffffffffffffff1673ffffffffffffffffffffffffffffffffffffffff1681526020019081526020016000206000828254612634919061436a565b925050819055508673ffffffffffffffffffffffffffffffffffffffff16600073ffffffffffffffffffffffffffffffffffffffff168473ffffffffffffffffffffffffffffffffffffffff167fc3d58168c5ae7397731d063d5bbf3d657854427343f4c083240f7aacaa2d0f6289896040516126b29291906141e9565b60405180910390a46126c983600089858589612df4565b6126d8836000898989896130a9565b50505050505050565b600080600090505b60016005805490506126fb91906143c0565b8110156128aa578161279d578273ffffffffffffffffffffffffffffffffffffffff1660058281548110612758577f4e487b7100000000000000000000000000000000000000000000000000000000600052603260045260246000fd5b9060005260206000200160009054906101000a900473ffffffffffffffffffffffffffffffffffffffff1673ffffffffffffffffffffffffffffffffffffffff161491505b81156128975760056001826127b2919061436a565b815481106127e9577f4e487b7100000000000000000000000000000000000000000000000000000000600052603260045260246000fd5b9060005260206000200160009054906101000a900473ffffffffffffffffffffffffffffffffffffffff166005828154811061284e577f4e487b7100000000000000000000000000000000000000000000000000000000600052603260045260246000fd5b9060005260206000200160006101000a81548173ffffffffffffffffffffffffffffffffffffffff021916908373ffffffffffffffffffffffffffffffffffffffff1602179055505b80806128a290614531565b9150506126e9565b5060058054806128e3577f4e487b7100000000000000000000000000000000000000000000000000000000600052603160045260246000fd5b6001900381819060005260206000200160006101000a81549073ffffffffffffffffffffffffffffffffffffffff021916905590555050565b60008060009054906101000a900473ffffffffffffffffffffffffffffffffffffffff169050816000806101000a81548173ffffffffffffffffffffffffffffffffffffffff021916908373ffffffffffffffffffffffffffffffffffffffff1602179055508173ffffffffffffffffffffffffffffffffffffffff168173ffffffffffffffffffffffffffffffffffffffff167f8be0079c531659141344cd1fd0a4f28419497f9722a3daafe3b4186f6b6457e060405160405180910390a35050565b8173ffffffffffffffffffffffffffffffffffffffff168373ffffffffffffffffffffffffffffffffffffffff161415612a4f576040517f08c379a0000000000000000000000000000000000000000000000000000000008152600401612a469061414e565b60405180910390fd5b80600260008573ffffffffffffffffffffffffffffffffffffffff1673ffffffffffffffffffffffffffffffffffffffff16815260200190815260200160002060008473ffffffffffffffffffffffffffffffffffffffff1673ffffffffffffffffffffffffffffffffffffffff16815260200190815260200160002060006101000a81548160ff0219169083151502179055508173ffffffffffffffffffffffffffffffffffffffff168373ffffffffffffffffffffffffffffffffffffffff167f17307eab39ab6107e8899845ad3d59bd9653f200f220920489ca2b5937696c3183604051612b409190613f11565b60405180910390a3505050565b600073ffffffffffffffffffffffffffffffffffffffff168473ffffffffffffffffffffffffffffffffffffffff161415612bbd576040517f08c379a0000000000000000000000000000000000000000000000000000000008152600401612bb49061402e565b60405180910390fd5b6000612bc7611f6d565b90506000612bd485612fe3565b90506000612be185612fe3565b9050612bf1838989858589612dec565b60006001600088815260200190815260200160002060008a73ffffffffffffffffffffffffffffffffffffffff1673ffffffffffffffffffffffffffffffffffffffff16815260200190815260200160002054905085811015612c89576040517f08c379a0000000000000000000000000000000000000000000000000000000008152600401612c80906140ce565b60405180910390fd5b8581036001600089815260200190815260200160002060008b73ffffffffffffffffffffffffffffffffffffffff1673ffffffffffffffffffffffffffffffffffffffff16815260200190815260200160002081905550856001600089815260200190815260200160002060008a73ffffffffffffffffffffffffffffffffffffffff1673ffffffffffffffffffffffffffffffffffffffff1681526020019081526020016000206000828254612d40919061436a565b925050819055508773ffffffffffffffffffffffffffffffffffffffff168973ffffffffffffffffffffffffffffffffffffffff168573ffffffffffffffffffffffffffffffffffffffff167fc3d58168c5ae7397731d063d5bbf3d657854427343f4c083240f7aacaa2d0f628a8a604051612dbd9291906141e9565b60405180910390a4612dd3848a8a86868a612df4565b612de1848a8a8a8a8a6130a9565b505050505050505050565b505050505050565b505050505050565b612e1b8473ffffffffffffffffffffffffffffffffffffffff16613290565b15612fdb578373ffffffffffffffffffffffffffffffffffffffff1663bc197c8187878686866040518663ffffffff1660e01b8152600401612e61959493929190613d74565b602060405180830381600087803b158015612e7b57600080fd5b505af1925050508015612eac57506040513d601f19601f82011682018060405250810190612ea99190613816565b60015b612f5257612eb8614607565b806308c379a01415612f155750612ecd614b8f565b80612ed85750612f17565b806040517f08c379a0000000000000000000000000000000000000000000000000000000008152600401612f0c9190613f2c565b60405180910390fd5b505b6040517f08c379a0000000000000000000000000000000000000000000000000000000008152600401612f4990613f4e565b60405180910390fd5b63bc197c8160e01b7bffffffffffffffffffffffffffffffffffffffffffffffffffffffff1916817bffffffffffffffffffffffffffffffffffffffffffffffffffffffff191614612fd9576040517f08c379a0000000000000000000000000000000000000000000000000000000008152600401612fd090613f6e565b60405180910390fd5b505b505050505050565b60606000600167ffffffffffffffff811115613028577f4e487b7100000000000000000000000000000000000000000000000000000000600052604160045260246000fd5b6040519080825280602002602001820160405280156130565781602001602082028036833780820191505090505b5090508281600081518110613094577f4e487b7100000000000000000000000000000000000000000000000000000000600052603260045260246000fd5b60200260200101818152505080915050919050565b6130c88473ffffffffffffffffffffffffffffffffffffffff16613290565b15613288578373ffffffffffffffffffffffffffffffffffffffff1663f23a6e6187878686866040518663ffffffff1660e01b815260040161310e959493929190613e13565b602060405180830381600087803b15801561312857600080fd5b505af192505050801561315957506040513d601f19601f820116820180604052508101906131569190613816565b60015b6131ff57613165614607565b806308c379a014156131c2575061317a614b8f565b8061318557506131c4565b806040517f08c379a00000000000000000000000000000000000000000000000000000000081526004016131b99190613f2c565b60405180910390fd5b505b6040517f08c379a00000000000000000000000000000000000000000000000000000000081526004016131f690613f4e565b60405180910390fd5b63f23a6e6160e01b7bffffffffffffffffffffffffffffffffffffffffffffffffffffffff1916817bffffffffffffffffffffffffffffffffffffffffffffffffffffffff191614613286576040517f08c379a000000000000000000000000000000000000000000000000000000000815260040161327d90613f6e565b60405180910390fd5b505b505050505050565b6000808273ffffffffffffffffffffffffffffffffffffffff163b119050919050565b60006132c66132c184614237565b614212565b905080838252602082019050828560208602820111156132e557600080fd5b60005b8581101561331557816132fb88826133c9565b8452602084019350602083019250506001810190506132e8565b5050509392505050565b600061333261332d84614263565b614212565b9050808382526020820190508285602086028201111561335157600080fd5b60005b85811015613381578161336788826134da565b845260208401935060208301925050600181019050613354565b5050509392505050565b600061339e6133998461428f565b614212565b9050828152602081018484840111156133b657600080fd5b6133c184828561448c565b509392505050565b6000813590506133d881614c25565b92915050565b6000813590506133ed81614c3c565b92915050565b600082601f83011261340457600080fd5b81356134148482602086016132b3565b91505092915050565b600082601f83011261342e57600080fd5b813561343e84826020860161331f565b91505092915050565b60008135905061345681614c53565b92915050565b60008151905061346b81614c53565b92915050565b60008135905061348081614c6a565b92915050565b60008151905061349581614c6a565b92915050565b600082601f8301126134ac57600080fd5b81356134bc84826020860161338b565b91505092915050565b6000813590506134d481614c81565b92915050565b6000813590506134e981614c98565b92915050565b6000815190506134fe81614c98565b92915050565b60006020828403121561351657600080fd5b6000613524848285016133c9565b91505092915050565b60006020828403121561353f57600080fd5b600061354d848285016133de565b91505092915050565b6000806040838503121561356957600080fd5b6000613577858286016133c9565b9250506020613588858286016133c9565b9150509250929050565b600080600080600060a086880312156135aa57600080fd5b60006135b8888289016133c9565b95505060206135c9888289016133c9565b945050604086013567ffffffffffffffff8111156135e657600080fd5b6135f28882890161341d565b935050606086013567ffffffffffffffff81111561360f57600080fd5b61361b8882890161341d565b925050608086013567ffffffffffffffff81111561363857600080fd5b6136448882890161349b565b9150509295509295909350565b600080600080600060a0868803121561366957600080fd5b6000613677888289016133c9565b9550506020613688888289016133c9565b9450506040613699888289016134da565b93505060606136aa888289016134da565b925050608086013567ffffffffffffffff8111156136c757600080fd5b6136d38882890161349b565b9150509295509295909350565b600080604083850312156136f357600080fd5b6000613701858286016133c9565b925050602061371285828601613447565b9150509250929050565b6000806040838503121561372f57600080fd5b600061373d858286016133c9565b925050602061374e858286016134da565b9150509250929050565b6000806040838503121561376b57600080fd5b600083013567ffffffffffffffff81111561378557600080fd5b613791858286016133f3565b925050602083013567ffffffffffffffff8111156137ae57600080fd5b6137ba8582860161341d565b9150509250929050565b6000602082840312156137d657600080fd5b60006137e48482850161345c565b91505092915050565b6000602082840312156137ff57600080fd5b600061380d84828501613471565b91505092915050565b60006020828403121561382857600080fd5b600061383684828501613486565b91505092915050565b6000806000806080858703121561385557600080fd5b6000613863878288016134c5565b9450506020613874878288016133c9565b9350506040613885878288016133c9565b9250506060613896878288016134da565b91505092959194509250565b6000602082840312156138b457600080fd5b60006138c2848285016134da565b91505092915050565b6000602082840312156138dd57600080fd5b60006138eb848285016134ef565b91505092915050565b60006139008383613924565b60208301905092915050565b60006139188383613d3b565b60208301905092915050565b61392d816143f4565b82525050565b61393c816143f4565b82525050565b600061394d826142e0565b6139578185614326565b9350613962836142c0565b8060005b8381101561399357815161397a88826138f4565b97506139858361430c565b925050600181019050613966565b5085935050505092915050565b60006139ab826142eb565b6139b58185614337565b93506139c0836142d0565b8060005b838110156139f15781516139d8888261390c565b97506139e383614319565b9250506001810190506139c4565b5085935050505092915050565b613a0781614418565b82525050565b6000613a18826142f6565b613a228185614348565b9350613a3281856020860161449b565b613a3b81614629565b840191505092915050565b6000613a5182614301565b613a5b8185614359565b9350613a6b81856020860161449b565b613a7481614629565b840191505092915050565b6000613a8c603483614359565b9150613a9782614647565b604082019050919050565b6000613aaf602883614359565b9150613aba82614696565b604082019050919050565b6000613ad2602b83614359565b9150613add826146e5565b604082019050919050565b6000613af5602683614359565b9150613b0082614734565b604082019050919050565b6000613b18602483614359565b9150613b2382614783565b604082019050919050565b6000613b3b602983614359565b9150613b46826147d2565b604082019050919050565b6000613b5e601283614359565b9150613b6982614821565b602082019050919050565b6000613b81602583614359565b9150613b8c8261484a565b604082019050919050565b6000613ba4603283614359565b9150613baf82614899565b604082019050919050565b6000613bc7601483614359565b9150613bd2826148e8565b602082019050919050565b6000613bea600e83614359565b9150613bf582614911565b602082019050919050565b6000613c0d602383614359565b9150613c188261493a565b604082019050919050565b6000613c30602a83614359565b9150613c3b82614989565b604082019050919050565b6000613c53602083614359565b9150613c5e826149d8565b602082019050919050565b6000613c76600f83614359565b9150613c8182614a01565b602082019050919050565b6000613c99601383614359565b9150613ca482614a2a565b602082019050919050565b6000613cbc602983614359565b9150613cc782614a53565b604082019050919050565b6000613cdf602983614359565b9150613cea82614aa2565b604082019050919050565b6000613d02602883614359565b9150613d0d82614af1565b604082019050919050565b6000613d25602183614359565b9150613d3082614b40565b604082019050919050565b613d4481614482565b82525050565b613d5381614482565b82525050565b6000602082019050613d6e6000830184613933565b92915050565b600060a082019050613d896000830188613933565b613d966020830187613933565b8181036040830152613da881866139a0565b90508181036060830152613dbc81856139a0565b90508181036080830152613dd08184613a0d565b90509695505050505050565b6000606082019050613df16000830186613933565b613dfe6020830185613933565b613e0b6040830184613d4a565b949350505050565b600060a082019050613e286000830188613933565b613e356020830187613933565b613e426040830186613d4a565b613e4f6060830185613d4a565b8181036080830152613e618184613a0d565b90509695505050505050565b6000604082019050613e826000830185613933565b613e8f6020830184613d4a565b9392505050565b60006020820190508181036000830152613eb08184613942565b905092915050565b60006020820190508181036000830152613ed281846139a0565b905092915050565b60006040820190508181036000830152613ef481856139a0565b90508181036020830152613f0881846139a0565b90509392505050565b6000602082019050613f2660008301846139fe565b92915050565b60006020820190508181036000830152613f468184613a46565b905092915050565b60006020820190508181036000830152613f6781613a7f565b9050919050565b60006020820190508181036000830152613f8781613aa2565b9050919050565b60006020820190508181036000830152613fa781613ac5565b9050919050565b60006020820190508181036000830152613fc781613ae8565b9050919050565b60006020820190508181036000830152613fe781613b0b565b9050919050565b6000602082019050818103600083015261400781613b2e565b9050919050565b6000602082019050818103600083015261402781613b51565b9050919050565b6000602082019050818103600083015261404781613b74565b9050919050565b6000602082019050818103600083015261406781613b97565b9050919050565b6000602082019050818103600083015261408781613bba565b9050919050565b600060208201905081810360008301526140a781613bdd565b9050919050565b600060208201905081810360008301526140c781613c00565b9050919050565b600060208201905081810360008301526140e781613c23565b9050919050565b6000602082019050818103600083015261410781613c46565b9050919050565b6000602082019050818103600083015261412781613c69565b9050919050565b6000602082019050818103600083015261414781613c8c565b9050919050565b6000602082019050818103600083015261416781613caf565b9050919050565b6000602082019050818103600083015261418781613cd2565b9050919050565b600060208201905081810360008301526141a781613cf5565b9050919050565b600060208201905081810360008301526141c781613d18565b9050919050565b60006020820190506141e36000830184613d4a565b92915050565b60006040820190506141fe6000830185613d4a565b61420b6020830184613d4a565b9392505050565b600061421c61422d565b90506142288282614500565b919050565b6000604051905090565b600067ffffffffffffffff821115614252576142516145d8565b5b602082029050602081019050919050565b600067ffffffffffffffff82111561427e5761427d6145d8565b5b602082029050602081019050919050565b600067ffffffffffffffff8211156142aa576142a96145d8565b5b6142b382614629565b9050602081019050919050565b6000819050602082019050919050565b6000819050602082019050919050565b600081519050919050565b600081519050919050565b600081519050919050565b600081519050919050565b6000602082019050919050565b6000602082019050919050565b600082825260208201905092915050565b600082825260208201905092915050565b600082825260208201905092915050565b600082825260208201905092915050565b600061437582614482565b915061438083614482565b9250827fffffffffffffffffffffffffffffffffffffffffffffffffffffffffffffffff038211156143b5576143b461457a565b5b828201905092915050565b60006143cb82614482565b91506143d683614482565b9250828210156143e9576143e861457a565b5b828203905092915050565b60006143ff82614462565b9050919050565b600061441182614462565b9050919050565b60008115159050919050565b60007fffffffff0000000000000000000000000000000000000000000000000000000082169050919050565b600061445b826143f4565b9050919050565b600073ffffffffffffffffffffffffffffffffffffffff82169050919050565b6000819050919050565b82818337600083830152505050565b60005b838110156144b957808201518184015260208101905061449e565b838111156144c8576000848401525b50505050565b600060028204905060018216806144e657607f821691505b602082108114156144fa576144f96145a9565b5b50919050565b61450982614629565b810181811067ffffffffffffffff82111715614528576145276145d8565b5b80604052505050565b600061453c82614482565b91507fffffffffffffffffffffffffffffffffffffffffffffffffffffffffffffffff82141561456f5761456e61457a565b5b600182019050919050565b7f4e487b7100000000000000000000000000000000000000000000000000000000600052601160045260246000fd5b7f4e487b7100000000000000000000000000000000000000000000000000000000600052602260045260246000fd5b7f4e487b7100000000000000000000000000000000000000000000000000000000600052604160045260246000fd5b600060033d11156146265760046000803e61462360005161463a565b90505b90565b6000601f19601f8301169050919050565b60008160e01c9050919050565b7f455243313135353a207472616e7366657220746f206e6f6e204552433131353560008201527f526563656976657220696d706c656d656e746572000000000000000000000000602082015250565b7f455243313135353a204552433131353552656365697665722072656a6563746560008201527f6420746f6b656e73000000000000000000000000000000000000000000000000602082015250565b7f455243313135353a2062616c616e636520717565727920666f7220746865207a60008201527f65726f2061646472657373000000000000000000000000000000000000000000602082015250565b7f4f776e61626c653a206e6577206f776e657220697320746865207a65726f206160008201527f6464726573730000000000000000000000000000000000000000000000000000602082015250565b7f455243313135353a206275726e20616d6f756e7420657863656564732062616c60008201527f616e636500000000000000000000000000000000000000000000000000000000602082015250565b7f455243313135353a2063616c6c6572206973206e6f74206f776e6572206e6f7260008201527f20617070726f7665640000000000000000000000000000000000000000000000602082015250565b7f6973206e6f7420417574686f72697a6564210000000000000000000000000000600082015250565b7f455243313135353a207472616e7366657220746f20746865207a65726f20616460008201527f6472657373000000000000000000000000000000000000000000000000000000602082015250565b7f455243313135353a207472616e736665722063616c6c6572206973206e6f742060008201527f6f776e6572206e6f7220617070726f7665640000000000000000000000000000602082015250565b7f77726f6e67206661756365742063616c6c657221000000000000000000000000600082015250565b7f62616c616e6365206973206c6f77000000000000000000000000000000000000600082015250565b7f455243313135353a206275726e2066726f6d20746865207a65726f206164647260008201527f6573730000000000000000000000000000000000000000000000000000000000602082015250565b7f455243313135353a20696e73756666696369656e742062616c616e636520666f60008201527f72207472616e7366657200000000000000000000000000000000000000000000602082015250565b7f4f776e61626c653a2063616c6c6572206973206e6f7420746865206f776e6572600082015250565b7f6e6f7420417574686f72697a6564210000000000000000000000000000000000600082015250565b7f6e6f7420656e6f7567682062616c616e63652100000000000000000000000000600082015250565b7f455243313135353a2073657474696e6720617070726f76616c2073746174757360008201527f20666f722073656c660000000000000000000000000000000000000000000000602082015250565b7f455243313135353a206163636f756e747320616e6420696473206c656e67746860008201527f206d69736d617463680000000000000000000000000000000000000000000000602082015250565b7f455243313135353a2069647320616e6420616d6f756e7473206c656e6774682060008201527f6d69736d61746368000000000000000000000000000000000000000000000000602082015250565b7f455243313135353a206d696e7420746f20746865207a65726f2061646472657360008201527f7300000000000000000000000000000000000000000000000000000000000000602082015250565b600060443d1015614b9f57614c22565b614ba761422d565b60043d036004823e80513d602482011167ffffffffffffffff82111715614bcf575050614c22565b808201805167ffffffffffffffff811115614bed5750505050614c22565b80602083010160043d038501811115614c0a575050505050614c22565b614c1982602001850186614500565b82955050505050505b90565b614c2e816143f4565b8114614c3957600080fd5b50565b614c4581614406565b8114614c5057600080fd5b50565b614c5c81614418565b8114614c6757600080fd5b50565b614c7381614424565b8114614c7e57600080fd5b50565b614c8a81614450565b8114614c9557600080fd5b50565b614ca181614482565b8114614cac57600080fd5b5056fea26469706673582212201a93a16444bb8467082e95ab2734d636c7a6c90fb8837aecc8d245c7246c7a3364736f6c63430008040033",
  "linkReferences": {},
  "deployedLinkReferences": {}
}