{
  "_format": "hh-sol-artifact-1",
  "contractName": "MultiBank",
  "sourceName": "contracts/MultiBank.sol",
  "abi": [
    {
      "inputs": [],
      "stateMutability": "nonpayable",
      "type": "constructor"
    },
    {
      "anonymous": false,
      "inputs": [
        {
          "indexed": true,
          "internalType": "address",
          "name": "account",
          "type": "address"
        },
        {
          "indexed": true,
          "internalType": "address",
          "name": "operator",
          "type": "address"
        },
        {
          "indexed": false,
          "internalType": "bool",
          "name": "approved",
          "type": "bool"
        }
      ],
      "name": "ApprovalForAll",
      "type": "event"
    },
    {
      "anonymous": false,
      "inputs": [
        {
          "indexed": true,
          "internalType": "address",
          "name": "previousOwner",
          "type": "address"
        },
        {
          "indexed": true,
          "internalType": "address",
          "name": "newOwner",
          "type": "address"
        }
      ],
      "name": "OwnershipTransferred",
      "type": "event"
    },
    {
      "anonymous": false,
      "inputs": [
        {
          "indexed": true,
          "internalType": "address",
          "name": "operator",
          "type": "address"
        },
        {
          "indexed": true,
          "internalType": "address",
          "name": "from",
          "type": "address"
        },
        {
          "indexed": true,
          "internalType": "address",
          "name": "to",
          "type": "address"
        },
        {
          "indexed": false,
          "internalType": "uint256[]",
          "name": "ids",
          "type": "uint256[]"
        },
        {
          "indexed": false,
          "internalType": "uint256[]",
          "name": "values",
          "type": "uint256[]"
        }
      ],
      "name": "TransferBatch",
      "type": "event"
    },
    {
      "anonymous": false,
      "inputs": [
        {
          "indexed": false,
          "internalType": "address",
          "name": "_from",
          "type": "address"
        },
        {
          "indexed": false,
          "internalType": "address",
          "name": "_destAddress",
          "type": "address"
        },
        {
          "indexed": false,
          "internalType": "uint256",
          "name": "_amount",
          "type": "uint256"
        }
      ],
      "name": "TransferSent",
      "type": "event"
    },
    {
      "anonymous": false,
      "inputs": [
        {
          "indexed": true,
          "internalType": "address",
          "name": "operator",
          "type": "address"
        },
        {
          "indexed": true,
          "internalType": "address",
          "name": "from",
          "type": "address"
        },
        {
          "indexed": true,
          "internalType": "address",
          "name": "to",
          "type": "address"
        },
        {
          "indexed": false,
          "internalType": "uint256",
          "name": "id",
          "type": "uint256"
        },
        {
          "indexed": false,
          "internalType": "uint256",
          "name": "value",
          "type": "uint256"
        }
      ],
      "name": "TransferSingle",
      "type": "event"
    },
    {
      "anonymous": false,
      "inputs": [
        {
          "indexed": false,
          "internalType": "string",
          "name": "value",
          "type": "string"
        },
        {
          "indexed": true,
          "internalType": "uint256",
          "name": "id",
          "type": "uint256"
        }
      ],
      "name": "URI",
      "type": "event"
    },
    {
      "inputs": [],
      "name": "CREDIT",
      "outputs": [
        {
          "internalType": "uint256",
          "name": "",
          "type": "uint256"
        }
      ],
      "stateMutability": "view",
      "type": "function"
    },
    {
      "inputs": [],
      "name": "DEBET",
      "outputs": [
        {
          "internalType": "uint256",
          "name": "",
          "type": "uint256"
        }
      ],
      "stateMutability": "view",
      "type": "function"
    },
    {
      "inputs": [
        {
          "internalType": "address",
          "name": "_toAdd",
          "type": "address"
        }
      ],
      "name": "addAuthorized",
      "outputs": [],
      "stateMutability": "nonpayable",
      "type": "function"
    },
    {
      "inputs": [
        {
          "internalType": "address",
          "name": "",
          "type": "address"
        }
      ],
      "name": "authorized",
      "outputs": [
        {
          "internalType": "bool",
          "name": "",
          "type": "bool"
        }
      ],
      "stateMutability": "view",
      "type": "function"
    },
    {
      "inputs": [
        {
          "internalType": "address",
          "name": "account",
          "type": "address"
        },
        {
          "internalType": "uint256",
          "name": "id",
          "type": "uint256"
        }
      ],
      "name": "balanceOf",
      "outputs": [
        {
          "internalType": "uint256",
          "name": "",
          "type": "uint256"
        }
      ],
      "stateMutability": "view",
      "type": "function"
    },
    {
      "inputs": [
        {
          "internalType": "address[]",
          "name": "accounts",
          "type": "address[]"
        },
        {
          "internalType": "uint256[]",
          "name": "ids",
          "type": "uint256[]"
        }
      ],
      "name": "balanceOfBatch",
      "outputs": [
        {
          "internalType": "uint256[]",
          "name": "",
          "type": "uint256[]"
        }
      ],
      "stateMutability": "view",
      "type": "function"
    },
    {
      "inputs": [
        {
          "internalType": "uint256",
          "name": "amount",
          "type": "uint256"
        }
      ],
      "name": "claim",
      "outputs": [],
      "stateMutability": "nonpayable",
      "type": "function"
    },
    {
      "inputs": [],
      "name": "currentBalance",
      "outputs": [
        {
          "internalType": "uint256",
          "name": "",
          "type": "uint256"
        }
      ],
      "stateMutability": "view",
      "type": "function"
    },
    {
      "inputs": [
        {
          "internalType": "uint256",
          "name": "amount",
          "type": "uint256"
        }
      ],
      "name": "deposit",
      "outputs": [],
      "stateMutability": "nonpayable",
      "type": "function"
    },
    {
      "inputs": [
        {
          "internalType": "address payable",
          "name": "_to",
          "type": "address"
        }
      ],
      "name": "faucet",
      "outputs": [],
      "stateMutability": "nonpayable",
      "type": "function"
    },
    {
      "inputs": [],
      "name": "faucetAddress",
      "outputs": [
        {
          "internalType": "address",
          "name": "",
          "type": "address"
        }
      ],
      "stateMutability": "view",
      "type": "function"
    },
    {
      "inputs": [],
      "name": "faucetAmount",
      "outputs": [
        {
          "internalType": "uint256",
          "name": "",
          "type": "uint256"
        }
      ],
      "stateMutability": "view",
      "type": "function"
    },
    {
      "inputs": [
        {
          "internalType": "address",
          "name": "addr",
          "type": "address"
        }
      ],
      "name": "getAddressAuthorized",
      "outputs": [
        {
          "internalType": "bool",
          "name": "",
          "type": "bool"
        }
      ],
      "stateMutability": "view",
      "type": "function"
    },
    {
      "inputs": [],
      "name": "getAddressAuthorizedArray",
      "outputs": [
        {
          "internalType": "address[]",
          "name": "",
          "type": "address[]"
        }
      ],
      "stateMutability": "view",
      "type": "function"
    },
    {
      "inputs": [],
      "name": "getBankTokenAddress",
      "outputs": [
        {
          "internalType": "address",
          "name": "",
          "type": "address"
        }
      ],
      "stateMutability": "view",
      "type": "function"
    },
    {
      "inputs": [
        {
          "internalType": "address",
          "name": "account",
          "type": "address"
        },
        {
          "internalType": "address",
          "name": "operator",
          "type": "address"
        }
      ],
      "name": "isApprovedForAll",
      "outputs": [
        {
          "internalType": "bool",
          "name": "",
          "type": "bool"
        }
      ],
      "stateMutability": "view",
      "type": "function"
    },
    {
      "inputs": [],
      "name": "owner",
      "outputs": [
        {
          "internalType": "address",
          "name": "",
          "type": "address"
        }
      ],
      "stateMutability": "view",
      "type": "function"
    },
    {
      "inputs": [
        {
          "internalType": "address",
          "name": "_toRemove",
          "type": "address"
        }
      ],
      "name": "removeAuthorized",
      "outputs": [],
      "stateMutability": "nonpayable",
      "type": "function"
    },
    {
      "inputs": [],
      "name": "renounceOwnership",
      "outputs": [],
      "stateMutability": "nonpayable",
      "type": "function"
    },
    {
      "inputs": [
        {
          "internalType": "address",
          "name": "from",
          "type": "address"
        },
        {
          "internalType": "address",
          "name": "to",
          "type": "address"
        },
        {
          "internalType": "uint256[]",
          "name": "ids",
          "type": "uint256[]"
        },
        {
          "internalType": "uint256[]",
          "name": "amounts",
          "type": "uint256[]"
        },
        {
          "internalType": "bytes",
          "name": "data",
          "type": "bytes"
        }
      ],
      "name": "safeBatchTransferFrom",
      "outputs": [],
      "stateMutability": "nonpayable",
      "type": "function"
    },
    {
      "inputs": [
        {
          "internalType": "address",
          "name": "from",
          "type": "address"
        },
        {
          "internalType": "address",
          "name": "to",
          "type": "address"
        },
        {
          "internalType": "uint256",
          "name": "id",
          "type": "uint256"
        },
        {
          "internalType": "uint256",
          "name": "amount",
          "type": "uint256"
        },
        {
          "internalType": "bytes",
          "name": "data",
          "type": "bytes"
        }
      ],
      "name": "safeTransferFrom",
      "outputs": [],
      "stateMutability": "nonpayable",
      "type": "function"
    },
    {
      "inputs": [
        {
          "internalType": "address",
          "name": "operator",
          "type": "address"
        },
        {
          "internalType": "bool",
          "name": "approved",
          "type": "bool"
        }
      ],
      "name": "setApprovalForAll",
      "outputs": [],
      "stateMutability": "nonpayable",
      "type": "function"
    },
    {
      "inputs": [
        {
          "internalType": "address",
          "name": "newTokenAddress",
          "type": "address"
        }
      ],
      "name": "setBankToken",
      "outputs": [],
      "stateMutability": "nonpayable",
      "type": "function"
    },
    {
      "inputs": [
        {
          "internalType": "address",
          "name": "addr",
          "type": "address"
        }
      ],
      "name": "setFaucetAddress",
      "outputs": [],
      "stateMutability": "nonpayable",
      "type": "function"
    },
    {
      "inputs": [
        {
          "internalType": "uint256",
          "name": "amount",
          "type": "uint256"
        }
      ],
      "name": "setFaucetAmount",
      "outputs": [],
      "stateMutability": "nonpayable",
      "type": "function"
    },
    {
      "inputs": [
        {
          "internalType": "bytes4",
          "name": "interfaceId",
          "type": "bytes4"
        }
      ],
      "name": "supportsInterface",
      "outputs": [
        {
          "internalType": "bool",
          "name": "",
          "type": "bool"
        }
      ],
      "stateMutability": "view",
      "type": "function"
    },
    {
      "inputs": [
        {
          "internalType": "address",
          "name": "newOwner",
          "type": "address"
        }
      ],
      "name": "transferOwnership",
      "outputs": [],
      "stateMutability": "nonpayable",
      "type": "function"
    },
    {
      "inputs": [
        {
          "internalType": "uint256",
          "name": "",
          "type": "uint256"
        }
      ],
      "name": "uri",
      "outputs": [
        {
          "internalType": "string",
          "name": "",
          "type": "string"
        }
      ],
      "stateMutability": "view",
      "type": "function"
    },
    {
      "stateMutability": "payable",
      "type": "receive"
    }
  ],
  "bytecode": "0x60806040523480156200001157600080fd5b506040518060200160405280600081525062000042620000366200009b60201b60201c565b620000a360201b60201c565b62000053816200016760201b60201c565b5033600660006101000a81548173ffffffffffffffffffffffffffffffffffffffff021916908373ffffffffffffffffffffffffffffffffffffffff16021790555062000298565b600033905090565b60008060009054906101000a900473ffffffffffffffffffffffffffffffffffffffff169050816000806101000a81548173ffffffffffffffffffffffffffffffffffffffff021916908373ffffffffffffffffffffffffffffffffffffffff1602179055508173ffffffffffffffffffffffffffffffffffffffff168173ffffffffffffffffffffffffffffffffffffffff167f8be0079c531659141344cd1fd0a4f28419497f9722a3daafe3b4186f6b6457e060405160405180910390a35050565b80600390805190602001906200017f92919062000183565b5050565b828054620001919062000233565b90600052602060002090601f016020900481019282620001b5576000855562000201565b82601f10620001d057805160ff191683800117855562000201565b8280016001018555821562000201579182015b8281111562000200578251825591602001919060010190620001e3565b5b50905062000210919062000214565b5090565b5b808211156200022f57600081600090555060010162000215565b5090565b600060028204905060018216806200024c57607f821691505b6020821081141562000263576200026262000269565b5b50919050565b7f4e487b7100000000000000000000000000000000000000000000000000000000600052602260045260246000fd5b614c1180620002a86000396000f3fe6080604052600436106101ba5760003560e01c80639c281430116100ec578063ce845d1d1161008a578063e985e9c511610064578063e985e9c514610614578063f1e0510e14610651578063f242432a1461067a578063f2fde38b146106a3576101c1565b8063ce845d1d14610595578063cf1c316a146105c0578063e688013f146105e9576101c1565b8063b86d1d63116100c6578063b86d1d63146104c7578063b9181611146104f0578063ba884fd61461052d578063cb0524001461056a576101c1565b80639c2814301461044a578063a22cb46514610475578063b6b55f251461049e576101c1565b80634e1273f411610159578063715018a611610133578063715018a6146103b457806381d2fd9c146103cb57806384301632146103f45780638da5cb5b1461041f576101c1565b80634e1273f414610323578063594caf951461036057806366d792cd1461038b576101c1565b8063118346d311610195578063118346d31461027d5780632eb2c2d6146102a8578063379607f5146102d1578063485d7d94146102fa576101c1565b8062fdd58e146101c657806301ffc9a7146102035780630e89341c14610240576101c1565b366101c157005b600080fd5b3480156101d257600080fd5b506101ed60048036038101906101e891906136d4565b6106cc565b6040516101fa9190614123565b60405180910390f35b34801561020f57600080fd5b5061022a600480360381019061022591906137a5565b610796565b6040516102379190613e66565b60405180910390f35b34801561024c57600080fd5b50610267600480360381019061026291906137f7565b610878565b6040516102749190613e81565b60405180910390f35b34801561028957600080fd5b5061029261090c565b60405161029f9190613cae565b60405180910390f35b3480156102b457600080fd5b506102cf60048036038101906102ca919061354a565b610936565b005b3480156102dd57600080fd5b506102f860048036038101906102f391906137f7565b6109d7565b005b34801561030657600080fd5b50610321600480360381019061031c91906134bc565b610bd8565b005b34801561032f57600080fd5b5061034a60048036038101906103459190613710565b610d2b565b6040516103579190613e0d565b60405180910390f35b34801561036c57600080fd5b50610375610edc565b6040516103829190613deb565b60405180910390f35b34801561039757600080fd5b506103b260048036038101906103ad91906134bc565b610f6a565b005b3480156103c057600080fd5b506103c961102a565b005b3480156103d757600080fd5b506103f260048036038101906103ed91906137f7565b6110b2565b005b34801561040057600080fd5b50610409611138565b6040516104169190614123565b60405180910390f35b34801561042b57600080fd5b5061043461113d565b6040516104419190613cae565b60405180910390f35b34801561045657600080fd5b5061045f611166565b60405161046c9190614123565b60405180910390f35b34801561048157600080fd5b5061049c60048036038101906104979190613698565b61116c565b005b3480156104aa57600080fd5b506104c560048036038101906104c091906137f7565b611182565b005b3480156104d357600080fd5b506104ee60048036038101906104e991906134e5565b611383565b005b3480156104fc57600080fd5b50610517600480360381019061051291906134bc565b611532565b6040516105249190613e66565b60405180910390f35b34801561053957600080fd5b50610554600480360381019061054f91906134bc565b611552565b6040516105619190613e66565b60405180910390f35b34801561057657600080fd5b5061057f6115a8565b60405161058c9190613cae565b60405180910390f35b3480156105a157600080fd5b506105aa6115ce565b6040516105b79190614123565b60405180910390f35b3480156105cc57600080fd5b506105e760048036038101906105e291906134bc565b6116e0565b005b3480156105f557600080fd5b506105fe6118ab565b60405161060b9190614123565b60405180910390f35b34801561062057600080fd5b5061063b6004803603810190610636919061350e565b6118b0565b6040516106489190613e66565b60405180910390f35b34801561065d57600080fd5b50610678600480360381019061067391906134bc565b611944565b005b34801561068657600080fd5b506106a1600480360381019061069c9190613609565b611a04565b005b3480156106af57600080fd5b506106ca60048036038101906106c591906134bc565b611aa5565b005b60008073ffffffffffffffffffffffffffffffffffffffff168373ffffffffffffffffffffffffffffffffffffffff16141561073d576040517f08c379a000000000000000000000000000000000000000000000000000000000815260040161073490613ee3565b60405180910390fd5b6001600083815260200190815260200160002060008473ffffffffffffffffffffffffffffffffffffffff1673ffffffffffffffffffffffffffffffffffffffff16815260200190815260200160002054905092915050565b60007fd9b67a26000000000000000000000000000000000000000000000000000000007bffffffffffffffffffffffffffffffffffffffffffffffffffffffff1916827bffffffffffffffffffffffffffffffffffffffffffffffffffffffff1916148061086157507f0e89341c000000000000000000000000000000000000000000000000000000007bffffffffffffffffffffffffffffffffffffffffffffffffffffffff1916827bffffffffffffffffffffffffffffffffffffffffffffffffffffffff1916145b80610871575061087082611b9d565b5b9050919050565b60606003805461088790614411565b80601f01602080910402602001604051908101604052809291908181526020018280546108b390614411565b80156109005780601f106108d557610100808354040283529160200191610900565b820191906000526020600020905b8154815290600101906020018083116108e357829003601f168201915b50505050509050919050565b6000600860009054906101000a900473ffffffffffffffffffffffffffffffffffffffff16905090565b61093e611c07565b73ffffffffffffffffffffffffffffffffffffffff168573ffffffffffffffffffffffffffffffffffffffff16148061098457506109838561097e611c07565b6118b0565b5b6109c3576040517f08c379a00000000000000000000000000000000000000000000000000000000081526004016109ba90613fa3565b60405180910390fd5b6109d08585858585611c0f565b5050505050565b600460003373ffffffffffffffffffffffffffffffffffffffff1673ffffffffffffffffffffffffffffffffffffffff16815260200190815260200160002060009054906101000a900460ff1680610a6157503373ffffffffffffffffffffffffffffffffffffffff16610a4961113d565b73ffffffffffffffffffffffffffffffffffffffff16145b610aa0576040517f08c379a0000000000000000000000000000000000000000000000000000000008152600401610a9790614063565b60405180910390fd5b610ace600860009054906101000a900473ffffffffffffffffffffffffffffffffffffffff16303384611f80565b60003073ffffffffffffffffffffffffffffffffffffffff1662fdd58e3360006040518363ffffffff1660e01b8152600401610b0b929190613dc2565b60206040518083038186803b158015610b2357600080fd5b505afa158015610b37573d6000803e3d6000fd5b505050506040513d601f19601f82011682018060405250810190610b5b9190613820565b90506000811115610bb757818110610b7e57610b79336000846122b3565b610bb2565b610ba53360018385610b909190614315565b604051806020016040528060008152506124fc565b610bb1336000836122b3565b5b610bd4565b610bd333600184604051806020016040528060008152506124fc565b5b5050565b610be0611c07565b73ffffffffffffffffffffffffffffffffffffffff16610bfe61113d565b73ffffffffffffffffffffffffffffffffffffffff1614610c54576040517f08c379a0000000000000000000000000000000000000000000000000000000008152600401610c4b90614043565b60405180910390fd5b600073ffffffffffffffffffffffffffffffffffffffff168173ffffffffffffffffffffffffffffffffffffffff161415610c8e57600080fd5b3373ffffffffffffffffffffffffffffffffffffffff168173ffffffffffffffffffffffffffffffffffffffff161415610cc757600080fd5b6000600460008373ffffffffffffffffffffffffffffffffffffffff1673ffffffffffffffffffffffffffffffffffffffff16815260200190815260200160002060006101000a81548160ff021916908315150217905550610d28816126ae565b50565b60608151835114610d71576040517f08c379a0000000000000000000000000000000000000000000000000000000008152600401610d68906140c3565b60405180910390fd5b6000835167ffffffffffffffff811115610db4577f4e487b7100000000000000000000000000000000000000000000000000000000600052604160045260246000fd5b604051908082528060200260200182016040528015610de25781602001602082028036833780820191505090505b50905060005b8451811015610ed157610e7b858281518110610e2d577f4e487b7100000000000000000000000000000000000000000000000000000000600052603260045260246000fd5b6020026020010151858381518110610e6e577f4e487b7100000000000000000000000000000000000000000000000000000000600052603260045260246000fd5b60200260200101516106cc565b828281518110610eb4577f4e487b7100000000000000000000000000000000000000000000000000000000600052603260045260246000fd5b60200260200101818152505080610eca90614474565b9050610de8565b508091505092915050565b60606005805480602002602001604051908101604052809291908181526020018280548015610f6057602002820191906000526020600020905b8160009054906101000a900473ffffffffffffffffffffffffffffffffffffffff1673ffffffffffffffffffffffffffffffffffffffff1681526020019060010190808311610f16575b5050505050905090565b610f72611c07565b73ffffffffffffffffffffffffffffffffffffffff16610f9061113d565b73ffffffffffffffffffffffffffffffffffffffff1614610fe6576040517f08c379a0000000000000000000000000000000000000000000000000000000008152600401610fdd90614043565b60405180910390fd5b80600860006101000a81548173ffffffffffffffffffffffffffffffffffffffff021916908373ffffffffffffffffffffffffffffffffffffffff16021790555050565b611032611c07565b73ffffffffffffffffffffffffffffffffffffffff1661105061113d565b73ffffffffffffffffffffffffffffffffffffffff16146110a6576040517f08c379a000000000000000000000000000000000000000000000000000000000815260040161109d90614043565b60405180910390fd5b6110b060006128e9565b565b6110ba611c07565b73ffffffffffffffffffffffffffffffffffffffff166110d861113d565b73ffffffffffffffffffffffffffffffffffffffff161461112e576040517f08c379a000000000000000000000000000000000000000000000000000000000815260040161112590614043565b60405180910390fd5b8060078190555050565b600081565b60008060009054906101000a900473ffffffffffffffffffffffffffffffffffffffff16905090565b60075481565b61117e611177611c07565b83836129ad565b5050565b600460003373ffffffffffffffffffffffffffffffffffffffff1673ffffffffffffffffffffffffffffffffffffffff16815260200190815260200160002060009054906101000a900460ff168061120c57503373ffffffffffffffffffffffffffffffffffffffff166111f461113d565b73ffffffffffffffffffffffffffffffffffffffff16145b61124b576040517f08c379a000000000000000000000000000000000000000000000000000000000815260040161124290614063565b60405180910390fd5b611279600860009054906101000a900473ffffffffffffffffffffffffffffffffffffffff16333084611f80565b60003073ffffffffffffffffffffffffffffffffffffffff1662fdd58e3360016040518363ffffffff1660e01b81526004016112b6929190613dc2565b60206040518083038186803b1580156112ce57600080fd5b505afa1580156112e2573d6000803e3d6000fd5b505050506040513d601f19601f820116820180604052508101906113069190613820565b905060008110611362578181111561132957611324336001846122b3565b61135d565b611350336000838561133b9190614315565b604051806020016040528060008152506124fc565b61135c336001836122b3565b5b61137f565b61137e33600084604051806020016040528060008152506124fc565b5b5050565b600660009054906101000a900473ffffffffffffffffffffffffffffffffffffffff1673ffffffffffffffffffffffffffffffffffffffff163373ffffffffffffffffffffffffffffffffffffffff1614611413576040517f08c379a000000000000000000000000000000000000000000000000000000000815260040161140a90613fc3565b60405180910390fd5b80600460008273ffffffffffffffffffffffffffffffffffffffff1673ffffffffffffffffffffffffffffffffffffffff16815260200190815260200160002060009054906101000a900460ff166114a0576040517f08c379a000000000000000000000000000000000000000000000000000000000815260040161149790613f63565b60405180910390fd5b6007544710156114e5576040517f08c379a00000000000000000000000000000000000000000000000000000000081526004016114dc90614083565b60405180910390fd5b8173ffffffffffffffffffffffffffffffffffffffff166108fc6007549081150290604051600060405180830381858888f1935050505015801561152d573d6000803e3d6000fd5b505050565b60046020528060005260406000206000915054906101000a900460ff1681565b6000600460008373ffffffffffffffffffffffffffffffffffffffff1673ffffffffffffffffffffffffffffffffffffffff16815260200190815260200160002060009054906101000a900460ff169050919050565b600660009054906101000a900473ffffffffffffffffffffffffffffffffffffffff1681565b60008073ffffffffffffffffffffffffffffffffffffffff16600860009054906101000a900473ffffffffffffffffffffffffffffffffffffffff1673ffffffffffffffffffffffffffffffffffffffff16141561162f57600090506116dd565b600860009054906101000a900473ffffffffffffffffffffffffffffffffffffffff1673ffffffffffffffffffffffffffffffffffffffff166370a08231306040518263ffffffff1660e01b815260040161168a9190613cae565b60206040518083038186803b1580156116a257600080fd5b505afa1580156116b6573d6000803e3d6000fd5b505050506040513d601f19601f820116820180604052508101906116da9190613820565b90505b90565b6116e8611c07565b73ffffffffffffffffffffffffffffffffffffffff1661170661113d565b73ffffffffffffffffffffffffffffffffffffffff161461175c576040517f08c379a000000000000000000000000000000000000000000000000000000000815260040161175390614043565b60405180910390fd5b600073ffffffffffffffffffffffffffffffffffffffff168173ffffffffffffffffffffffffffffffffffffffff16141561179657600080fd5b600460008273ffffffffffffffffffffffffffffffffffffffff1673ffffffffffffffffffffffffffffffffffffffff16815260200190815260200160002060009054906101000a900460ff16156117ed57600080fd5b6001600460008373ffffffffffffffffffffffffffffffffffffffff1673ffffffffffffffffffffffffffffffffffffffff16815260200190815260200160002060006101000a81548160ff0219169083151502179055506005819080600181540180825580915050600190039060005260206000200160009091909190916101000a81548173ffffffffffffffffffffffffffffffffffffffff021916908373ffffffffffffffffffffffffffffffffffffffff16021790555050565b600181565b6000600260008473ffffffffffffffffffffffffffffffffffffffff1673ffffffffffffffffffffffffffffffffffffffff16815260200190815260200160002060008373ffffffffffffffffffffffffffffffffffffffff1673ffffffffffffffffffffffffffffffffffffffff16815260200190815260200160002060009054906101000a900460ff16905092915050565b61194c611c07565b73ffffffffffffffffffffffffffffffffffffffff1661196a61113d565b73ffffffffffffffffffffffffffffffffffffffff16146119c0576040517f08c379a00000000000000000000000000000000000000000000000000000000081526004016119b790614043565b60405180910390fd5b80600660006101000a81548173ffffffffffffffffffffffffffffffffffffffff021916908373ffffffffffffffffffffffffffffffffffffffff16021790555050565b611a0c611c07565b73ffffffffffffffffffffffffffffffffffffffff168573ffffffffffffffffffffffffffffffffffffffff161480611a525750611a5185611a4c611c07565b6118b0565b5b611a91576040517f08c379a0000000000000000000000000000000000000000000000000000000008152600401611a8890613f43565b60405180910390fd5b611a9e8585858585612b1a565b5050505050565b611aad611c07565b73ffffffffffffffffffffffffffffffffffffffff16611acb61113d565b73ffffffffffffffffffffffffffffffffffffffff1614611b21576040517f08c379a0000000000000000000000000000000000000000000000000000000008152600401611b1890614043565b60405180910390fd5b600073ffffffffffffffffffffffffffffffffffffffff168173ffffffffffffffffffffffffffffffffffffffff161415611b91576040517f08c379a0000000000000000000000000000000000000000000000000000000008152600401611b8890613f03565b60405180910390fd5b611b9a816128e9565b50565b60007f01ffc9a7000000000000000000000000000000000000000000000000000000007bffffffffffffffffffffffffffffffffffffffffffffffffffffffff1916827bffffffffffffffffffffffffffffffffffffffffffffffffffffffff1916149050919050565b600033905090565b8151835114611c53576040517f08c379a0000000000000000000000000000000000000000000000000000000008152600401611c4a906140e3565b60405180910390fd5b600073ffffffffffffffffffffffffffffffffffffffff168473ffffffffffffffffffffffffffffffffffffffff161415611cc3576040517f08c379a0000000000000000000000000000000000000000000000000000000008152600401611cba90613f83565b60405180910390fd5b6000611ccd611c07565b9050611cdd818787878787612db9565b60005b8451811015611edd576000858281518110611d24577f4e487b7100000000000000000000000000000000000000000000000000000000600052603260045260246000fd5b602002602001015190506000858381518110611d69577f4e487b7100000000000000000000000000000000000000000000000000000000600052603260045260246000fd5b6020026020010151905060006001600084815260200190815260200160002060008b73ffffffffffffffffffffffffffffffffffffffff1673ffffffffffffffffffffffffffffffffffffffff16815260200190815260200160002054905081811015611e0b576040517f08c379a0000000000000000000000000000000000000000000000000000000008152600401611e0290614023565b60405180910390fd5b8181036001600085815260200190815260200160002060008c73ffffffffffffffffffffffffffffffffffffffff1673ffffffffffffffffffffffffffffffffffffffff16815260200190815260200160002081905550816001600085815260200190815260200160002060008b73ffffffffffffffffffffffffffffffffffffffff1673ffffffffffffffffffffffffffffffffffffffff1681526020019081526020016000206000828254611ec291906142bf565b9250508190555050505080611ed690614474565b9050611ce0565b508473ffffffffffffffffffffffffffffffffffffffff168673ffffffffffffffffffffffffffffffffffffffff168273ffffffffffffffffffffffffffffffffffffffff167f4a39dc06d4c0dbc64b70af90fd698a233a518aa5d07e595d983b8c0526c8f7fb8787604051611f54929190613e2f565b60405180910390a4611f6a818787878787612dc1565b611f78818787878787612dc9565b505050505050565b600460003373ffffffffffffffffffffffffffffffffffffffff1673ffffffffffffffffffffffffffffffffffffffff16815260200190815260200160002060009054906101000a900460ff168061200a57503373ffffffffffffffffffffffffffffffffffffffff16611ff261113d565b73ffffffffffffffffffffffffffffffffffffffff16145b612049576040517f08c379a000000000000000000000000000000000000000000000000000000000815260040161204090614063565b60405180910390fd5b60008473ffffffffffffffffffffffffffffffffffffffff166370a08231856040518263ffffffff1660e01b81526004016120849190613cae565b60206040518083038186803b15801561209c57600080fd5b505afa1580156120b0573d6000803e3d6000fd5b505050506040513d601f19601f820116820180604052508101906120d49190613820565b905080821115612119576040517f08c379a000000000000000000000000000000000000000000000000000000000815260040161211090613fe3565b60405180910390fd5b3073ffffffffffffffffffffffffffffffffffffffff168473ffffffffffffffffffffffffffffffffffffffff1614156121e0578473ffffffffffffffffffffffffffffffffffffffff1663a9059cbb84846040518363ffffffff1660e01b8152600401612188929190613dc2565b602060405180830381600087803b1580156121a257600080fd5b505af11580156121b6573d6000803e3d6000fd5b505050506040513d601f19601f820116820180604052508101906121da919061377c565b50612271565b8473ffffffffffffffffffffffffffffffffffffffff166323b872dd8585856040518463ffffffff1660e01b815260040161221d93929190613d31565b602060405180830381600087803b15801561223757600080fd5b505af115801561224b573d6000803e3d6000fd5b505050506040513d601f19601f8201168201806040525081019061226f919061377c565b505b7ffda3a3e0e1479b43cb1c701f7576187f4c4ad80768d627387e00184302f7d88e8484846040516122a493929190613d31565b60405180910390a15050505050565b600073ffffffffffffffffffffffffffffffffffffffff168373ffffffffffffffffffffffffffffffffffffffff161415612323576040517f08c379a000000000000000000000000000000000000000000000000000000000815260040161231a90614003565b60405180910390fd5b600061232d611c07565b9050600061233a84612fb0565b9050600061234784612fb0565b905061236783876000858560405180602001604052806000815250612db9565b60006001600087815260200190815260200160002060008873ffffffffffffffffffffffffffffffffffffffff1673ffffffffffffffffffffffffffffffffffffffff168152602001908152602001600020549050848110156123ff576040517f08c379a00000000000000000000000000000000000000000000000000000000081526004016123f690613f23565b60405180910390fd5b8481036001600088815260200190815260200160002060008973ffffffffffffffffffffffffffffffffffffffff1673ffffffffffffffffffffffffffffffffffffffff16815260200190815260200160002081905550600073ffffffffffffffffffffffffffffffffffffffff168773ffffffffffffffffffffffffffffffffffffffff168573ffffffffffffffffffffffffffffffffffffffff167fc3d58168c5ae7397731d063d5bbf3d657854427343f4c083240f7aacaa2d0f6289896040516124cd92919061413e565b60405180910390a46124f384886000868660405180602001604052806000815250612dc1565b50505050505050565b600073ffffffffffffffffffffffffffffffffffffffff168473ffffffffffffffffffffffffffffffffffffffff16141561256c576040517f08c379a000000000000000000000000000000000000000000000000000000000815260040161256390614103565b60405180910390fd5b6000612576611c07565b9050600061258385612fb0565b9050600061259085612fb0565b90506125a183600089858589612db9565b846001600088815260200190815260200160002060008973ffffffffffffffffffffffffffffffffffffffff1673ffffffffffffffffffffffffffffffffffffffff168152602001908152602001600020600082825461260191906142bf565b925050819055508673ffffffffffffffffffffffffffffffffffffffff16600073ffffffffffffffffffffffffffffffffffffffff168473ffffffffffffffffffffffffffffffffffffffff167fc3d58168c5ae7397731d063d5bbf3d657854427343f4c083240f7aacaa2d0f62898960405161267f92919061413e565b60405180910390a461269683600089858589612dc1565b6126a583600089898989613076565b50505050505050565b600080600090505b60016005805490506126c89190614315565b811015612877578161276a578273ffffffffffffffffffffffffffffffffffffffff1660058281548110612725577f4e487b7100000000000000000000000000000000000000000000000000000000600052603260045260246000fd5b9060005260206000200160009054906101000a900473ffffffffffffffffffffffffffffffffffffffff1673ffffffffffffffffffffffffffffffffffffffff161491505b811561286457600560018261277f91906142bf565b815481106127b6577f4e487b7100000000000000000000000000000000000000000000000000000000600052603260045260246000fd5b9060005260206000200160009054906101000a900473ffffffffffffffffffffffffffffffffffffffff166005828154811061281b577f4e487b7100000000000000000000000000000000000000000000000000000000600052603260045260246000fd5b9060005260206000200160006101000a81548173ffffffffffffffffffffffffffffffffffffffff021916908373ffffffffffffffffffffffffffffffffffffffff1602179055505b808061286f90614474565b9150506126b6565b5060058054806128b0577f4e487b7100000000000000000000000000000000000000000000000000000000600052603160045260246000fd5b6001900381819060005260206000200160006101000a81549073ffffffffffffffffffffffffffffffffffffffff021916905590555050565b60008060009054906101000a900473ffffffffffffffffffffffffffffffffffffffff169050816000806101000a81548173ffffffffffffffffffffffffffffffffffffffff021916908373ffffffffffffffffffffffffffffffffffffffff1602179055508173ffffffffffffffffffffffffffffffffffffffff168173ffffffffffffffffffffffffffffffffffffffff167f8be0079c531659141344cd1fd0a4f28419497f9722a3daafe3b4186f6b6457e060405160405180910390a35050565b8173ffffffffffffffffffffffffffffffffffffffff168373ffffffffffffffffffffffffffffffffffffffff161415612a1c576040517f08c379a0000000000000000000000000000000000000000000000000000000008152600401612a13906140a3565b60405180910390fd5b80600260008573ffffffffffffffffffffffffffffffffffffffff1673ffffffffffffffffffffffffffffffffffffffff16815260200190815260200160002060008473ffffffffffffffffffffffffffffffffffffffff1673ffffffffffffffffffffffffffffffffffffffff16815260200190815260200160002060006101000a81548160ff0219169083151502179055508173ffffffffffffffffffffffffffffffffffffffff168373ffffffffffffffffffffffffffffffffffffffff167f17307eab39ab6107e8899845ad3d59bd9653f200f220920489ca2b5937696c3183604051612b0d9190613e66565b60405180910390a3505050565b600073ffffffffffffffffffffffffffffffffffffffff168473ffffffffffffffffffffffffffffffffffffffff161415612b8a576040517f08c379a0000000000000000000000000000000000000000000000000000000008152600401612b8190613f83565b60405180910390fd5b6000612b94611c07565b90506000612ba185612fb0565b90506000612bae85612fb0565b9050612bbe838989858589612db9565b60006001600088815260200190815260200160002060008a73ffffffffffffffffffffffffffffffffffffffff1673ffffffffffffffffffffffffffffffffffffffff16815260200190815260200160002054905085811015612c56576040517f08c379a0000000000000000000000000000000000000000000000000000000008152600401612c4d90614023565b60405180910390fd5b8581036001600089815260200190815260200160002060008b73ffffffffffffffffffffffffffffffffffffffff1673ffffffffffffffffffffffffffffffffffffffff16815260200190815260200160002081905550856001600089815260200190815260200160002060008a73ffffffffffffffffffffffffffffffffffffffff1673ffffffffffffffffffffffffffffffffffffffff1681526020019081526020016000206000828254612d0d91906142bf565b925050819055508773ffffffffffffffffffffffffffffffffffffffff168973ffffffffffffffffffffffffffffffffffffffff168573ffffffffffffffffffffffffffffffffffffffff167fc3d58168c5ae7397731d063d5bbf3d657854427343f4c083240f7aacaa2d0f628a8a604051612d8a92919061413e565b60405180910390a4612da0848a8a86868a612dc1565b612dae848a8a8a8a8a613076565b505050505050505050565b505050505050565b505050505050565b612de88473ffffffffffffffffffffffffffffffffffffffff1661325d565b15612fa8578373ffffffffffffffffffffffffffffffffffffffff1663bc197c8187878686866040518663ffffffff1660e01b8152600401612e2e959493929190613cc9565b602060405180830381600087803b158015612e4857600080fd5b505af1925050508015612e7957506040513d601f19601f82011682018060405250810190612e7691906137ce565b60015b612f1f57612e8561454a565b806308c379a01415612ee25750612e9a614ad2565b80612ea55750612ee4565b806040517f08c379a0000000000000000000000000000000000000000000000000000000008152600401612ed99190613e81565b60405180910390fd5b505b6040517f08c379a0000000000000000000000000000000000000000000000000000000008152600401612f1690613ea3565b60405180910390fd5b63bc197c8160e01b7bffffffffffffffffffffffffffffffffffffffffffffffffffffffff1916817bffffffffffffffffffffffffffffffffffffffffffffffffffffffff191614612fa6576040517f08c379a0000000000000000000000000000000000000000000000000000000008152600401612f9d90613ec3565b60405180910390fd5b505b505050505050565b60606000600167ffffffffffffffff811115612ff5577f4e487b7100000000000000000000000000000000000000000000000000000000600052604160045260246000fd5b6040519080825280602002602001820160405280156130235781602001602082028036833780820191505090505b5090508281600081518110613061577f4e487b7100000000000000000000000000000000000000000000000000000000600052603260045260246000fd5b60200260200101818152505080915050919050565b6130958473ffffffffffffffffffffffffffffffffffffffff1661325d565b15613255578373ffffffffffffffffffffffffffffffffffffffff1663f23a6e6187878686866040518663ffffffff1660e01b81526004016130db959493929190613d68565b602060405180830381600087803b1580156130f557600080fd5b505af192505050801561312657506040513d601f19601f8201168201806040525081019061312391906137ce565b60015b6131cc5761313261454a565b806308c379a0141561318f5750613147614ad2565b806131525750613191565b806040517f08c379a00000000000000000000000000000000000000000000000000000000081526004016131869190613e81565b60405180910390fd5b505b6040517f08c379a00000000000000000000000000000000000000000000000000000000081526004016131c390613ea3565b60405180910390fd5b63f23a6e6160e01b7bffffffffffffffffffffffffffffffffffffffffffffffffffffffff1916817bffffffffffffffffffffffffffffffffffffffffffffffffffffffff191614613253576040517f08c379a000000000000000000000000000000000000000000000000000000000815260040161324a90613ec3565b60405180910390fd5b505b505050505050565b6000808273ffffffffffffffffffffffffffffffffffffffff163b119050919050565b600061329361328e8461418c565b614167565b905080838252602082019050828560208602820111156132b257600080fd5b60005b858110156132e257816132c88882613396565b8452602084019350602083019250506001810190506132b5565b5050509392505050565b60006132ff6132fa846141b8565b614167565b9050808382526020820190508285602086028201111561331e57600080fd5b60005b8581101561334e57816133348882613492565b845260208401935060208301925050600181019050613321565b5050509392505050565b600061336b613366846141e4565b614167565b90508281526020810184848401111561338357600080fd5b61338e8482856143cf565b509392505050565b6000813590506133a581614b68565b92915050565b6000813590506133ba81614b7f565b92915050565b600082601f8301126133d157600080fd5b81356133e1848260208601613280565b91505092915050565b600082601f8301126133fb57600080fd5b813561340b8482602086016132ec565b91505092915050565b60008135905061342381614b96565b92915050565b60008151905061343881614b96565b92915050565b60008135905061344d81614bad565b92915050565b60008151905061346281614bad565b92915050565b600082601f83011261347957600080fd5b8135613489848260208601613358565b91505092915050565b6000813590506134a181614bc4565b92915050565b6000815190506134b681614bc4565b92915050565b6000602082840312156134ce57600080fd5b60006134dc84828501613396565b91505092915050565b6000602082840312156134f757600080fd5b6000613505848285016133ab565b91505092915050565b6000806040838503121561352157600080fd5b600061352f85828601613396565b925050602061354085828601613396565b9150509250929050565b600080600080600060a0868803121561356257600080fd5b600061357088828901613396565b955050602061358188828901613396565b945050604086013567ffffffffffffffff81111561359e57600080fd5b6135aa888289016133ea565b935050606086013567ffffffffffffffff8111156135c757600080fd5b6135d3888289016133ea565b925050608086013567ffffffffffffffff8111156135f057600080fd5b6135fc88828901613468565b9150509295509295909350565b600080600080600060a0868803121561362157600080fd5b600061362f88828901613396565b955050602061364088828901613396565b945050604061365188828901613492565b935050606061366288828901613492565b925050608086013567ffffffffffffffff81111561367f57600080fd5b61368b88828901613468565b9150509295509295909350565b600080604083850312156136ab57600080fd5b60006136b985828601613396565b92505060206136ca85828601613414565b9150509250929050565b600080604083850312156136e757600080fd5b60006136f585828601613396565b925050602061370685828601613492565b9150509250929050565b6000806040838503121561372357600080fd5b600083013567ffffffffffffffff81111561373d57600080fd5b613749858286016133c0565b925050602083013567ffffffffffffffff81111561376657600080fd5b613772858286016133ea565b9150509250929050565b60006020828403121561378e57600080fd5b600061379c84828501613429565b91505092915050565b6000602082840312156137b757600080fd5b60006137c58482850161343e565b91505092915050565b6000602082840312156137e057600080fd5b60006137ee84828501613453565b91505092915050565b60006020828403121561380957600080fd5b600061381784828501613492565b91505092915050565b60006020828403121561383257600080fd5b6000613840848285016134a7565b91505092915050565b60006138558383613879565b60208301905092915050565b600061386d8383613c90565b60208301905092915050565b61388281614349565b82525050565b61389181614349565b82525050565b60006138a282614235565b6138ac818561427b565b93506138b783614215565b8060005b838110156138e85781516138cf8882613849565b97506138da83614261565b9250506001810190506138bb565b5085935050505092915050565b600061390082614240565b61390a818561428c565b935061391583614225565b8060005b8381101561394657815161392d8882613861565b97506139388361426e565b925050600181019050613919565b5085935050505092915050565b61395c8161436d565b82525050565b600061396d8261424b565b613977818561429d565b93506139878185602086016143de565b6139908161456c565b840191505092915050565b60006139a682614256565b6139b081856142ae565b93506139c08185602086016143de565b6139c98161456c565b840191505092915050565b60006139e16034836142ae565b91506139ec8261458a565b604082019050919050565b6000613a046028836142ae565b9150613a0f826145d9565b604082019050919050565b6000613a27602b836142ae565b9150613a3282614628565b604082019050919050565b6000613a4a6026836142ae565b9150613a5582614677565b604082019050919050565b6000613a6d6024836142ae565b9150613a78826146c6565b604082019050919050565b6000613a906029836142ae565b9150613a9b82614715565b604082019050919050565b6000613ab36012836142ae565b9150613abe82614764565b602082019050919050565b6000613ad66025836142ae565b9150613ae18261478d565b604082019050919050565b6000613af96032836142ae565b9150613b04826147dc565b604082019050919050565b6000613b1c6014836142ae565b9150613b278261482b565b602082019050919050565b6000613b3f600e836142ae565b9150613b4a82614854565b602082019050919050565b6000613b626023836142ae565b9150613b6d8261487d565b604082019050919050565b6000613b85602a836142ae565b9150613b90826148cc565b604082019050919050565b6000613ba86020836142ae565b9150613bb38261491b565b602082019050919050565b6000613bcb600f836142ae565b9150613bd682614944565b602082019050919050565b6000613bee6013836142ae565b9150613bf98261496d565b602082019050919050565b6000613c116029836142ae565b9150613c1c82614996565b604082019050919050565b6000613c346029836142ae565b9150613c3f826149e5565b604082019050919050565b6000613c576028836142ae565b9150613c6282614a34565b604082019050919050565b6000613c7a6021836142ae565b9150613c8582614a83565b604082019050919050565b613c99816143c5565b82525050565b613ca8816143c5565b82525050565b6000602082019050613cc36000830184613888565b92915050565b600060a082019050613cde6000830188613888565b613ceb6020830187613888565b8181036040830152613cfd81866138f5565b90508181036060830152613d1181856138f5565b90508181036080830152613d258184613962565b90509695505050505050565b6000606082019050613d466000830186613888565b613d536020830185613888565b613d606040830184613c9f565b949350505050565b600060a082019050613d7d6000830188613888565b613d8a6020830187613888565b613d976040830186613c9f565b613da46060830185613c9f565b8181036080830152613db68184613962565b90509695505050505050565b6000604082019050613dd76000830185613888565b613de46020830184613c9f565b9392505050565b60006020820190508181036000830152613e058184613897565b905092915050565b60006020820190508181036000830152613e2781846138f5565b905092915050565b60006040820190508181036000830152613e4981856138f5565b90508181036020830152613e5d81846138f5565b90509392505050565b6000602082019050613e7b6000830184613953565b92915050565b60006020820190508181036000830152613e9b818461399b565b905092915050565b60006020820190508181036000830152613ebc816139d4565b9050919050565b60006020820190508181036000830152613edc816139f7565b9050919050565b60006020820190508181036000830152613efc81613a1a565b9050919050565b60006020820190508181036000830152613f1c81613a3d565b9050919050565b60006020820190508181036000830152613f3c81613a60565b9050919050565b60006020820190508181036000830152613f5c81613a83565b9050919050565b60006020820190508181036000830152613f7c81613aa6565b9050919050565b60006020820190508181036000830152613f9c81613ac9565b9050919050565b60006020820190508181036000830152613fbc81613aec565b9050919050565b60006020820190508181036000830152613fdc81613b0f565b9050919050565b60006020820190508181036000830152613ffc81613b32565b9050919050565b6000602082019050818103600083015261401c81613b55565b9050919050565b6000602082019050818103600083015261403c81613b78565b9050919050565b6000602082019050818103600083015261405c81613b9b565b9050919050565b6000602082019050818103600083015261407c81613bbe565b9050919050565b6000602082019050818103600083015261409c81613be1565b9050919050565b600060208201905081810360008301526140bc81613c04565b9050919050565b600060208201905081810360008301526140dc81613c27565b9050919050565b600060208201905081810360008301526140fc81613c4a565b9050919050565b6000602082019050818103600083015261411c81613c6d565b9050919050565b60006020820190506141386000830184613c9f565b92915050565b60006040820190506141536000830185613c9f565b6141606020830184613c9f565b9392505050565b6000614171614182565b905061417d8282614443565b919050565b6000604051905090565b600067ffffffffffffffff8211156141a7576141a661451b565b5b602082029050602081019050919050565b600067ffffffffffffffff8211156141d3576141d261451b565b5b602082029050602081019050919050565b600067ffffffffffffffff8211156141ff576141fe61451b565b5b6142088261456c565b9050602081019050919050565b6000819050602082019050919050565b6000819050602082019050919050565b600081519050919050565b600081519050919050565b600081519050919050565b600081519050919050565b6000602082019050919050565b6000602082019050919050565b600082825260208201905092915050565b600082825260208201905092915050565b600082825260208201905092915050565b600082825260208201905092915050565b60006142ca826143c5565b91506142d5836143c5565b9250827fffffffffffffffffffffffffffffffffffffffffffffffffffffffffffffffff0382111561430a576143096144bd565b5b828201905092915050565b6000614320826143c5565b915061432b836143c5565b92508282101561433e5761433d6144bd565b5b828203905092915050565b6000614354826143a5565b9050919050565b6000614366826143a5565b9050919050565b60008115159050919050565b60007fffffffff0000000000000000000000000000000000000000000000000000000082169050919050565b600073ffffffffffffffffffffffffffffffffffffffff82169050919050565b6000819050919050565b82818337600083830152505050565b60005b838110156143fc5780820151818401526020810190506143e1565b8381111561440b576000848401525b50505050565b6000600282049050600182168061442957607f821691505b6020821081141561443d5761443c6144ec565b5b50919050565b61444c8261456c565b810181811067ffffffffffffffff8211171561446b5761446a61451b565b5b80604052505050565b600061447f826143c5565b91507fffffffffffffffffffffffffffffffffffffffffffffffffffffffffffffffff8214156144b2576144b16144bd565b5b600182019050919050565b7f4e487b7100000000000000000000000000000000000000000000000000000000600052601160045260246000fd5b7f4e487b7100000000000000000000000000000000000000000000000000000000600052602260045260246000fd5b7f4e487b7100000000000000000000000000000000000000000000000000000000600052604160045260246000fd5b600060033d11156145695760046000803e61456660005161457d565b90505b90565b6000601f19601f8301169050919050565b60008160e01c9050919050565b7f455243313135353a207472616e7366657220746f206e6f6e204552433131353560008201527f526563656976657220696d706c656d656e746572000000000000000000000000602082015250565b7f455243313135353a204552433131353552656365697665722072656a6563746560008201527f6420746f6b656e73000000000000000000000000000000000000000000000000602082015250565b7f455243313135353a2062616c616e636520717565727920666f7220746865207a60008201527f65726f2061646472657373000000000000000000000000000000000000000000602082015250565b7f4f776e61626c653a206e6577206f776e657220697320746865207a65726f206160008201527f6464726573730000000000000000000000000000000000000000000000000000602082015250565b7f455243313135353a206275726e20616d6f756e7420657863656564732062616c60008201527f616e636500000000000000000000000000000000000000000000000000000000602082015250565b7f455243313135353a2063616c6c6572206973206e6f74206f776e6572206e6f7260008201527f20617070726f7665640000000000000000000000000000000000000000000000602082015250565b7f6973206e6f7420417574686f72697a6564210000000000000000000000000000600082015250565b7f455243313135353a207472616e7366657220746f20746865207a65726f20616460008201527f6472657373000000000000000000000000000000000000000000000000000000602082015250565b7f455243313135353a207472616e736665722063616c6c6572206973206e6f742060008201527f6f776e6572206e6f7220617070726f7665640000000000000000000000000000602082015250565b7f77726f6e67206661756365742063616c6c657221000000000000000000000000600082015250565b7f62616c616e6365206973206c6f77000000000000000000000000000000000000600082015250565b7f455243313135353a206275726e2066726f6d20746865207a65726f206164647260008201527f6573730000000000000000000000000000000000000000000000000000000000602082015250565b7f455243313135353a20696e73756666696369656e742062616c616e636520666f60008201527f72207472616e7366657200000000000000000000000000000000000000000000602082015250565b7f4f776e61626c653a2063616c6c6572206973206e6f7420746865206f776e6572600082015250565b7f6e6f7420417574686f72697a6564210000000000000000000000000000000000600082015250565b7f6e6f7420656e6f7567682062616c616e63652100000000000000000000000000600082015250565b7f455243313135353a2073657474696e6720617070726f76616c2073746174757360008201527f20666f722073656c660000000000000000000000000000000000000000000000602082015250565b7f455243313135353a206163636f756e747320616e6420696473206c656e67746860008201527f206d69736d617463680000000000000000000000000000000000000000000000602082015250565b7f455243313135353a2069647320616e6420616d6f756e7473206c656e6774682060008201527f6d69736d61746368000000000000000000000000000000000000000000000000602082015250565b7f455243313135353a206d696e7420746f20746865207a65726f2061646472657360008201527f7300000000000000000000000000000000000000000000000000000000000000602082015250565b600060443d1015614ae257614b65565b614aea614182565b60043d036004823e80513d602482011167ffffffffffffffff82111715614b12575050614b65565b808201805167ffffffffffffffff811115614b305750505050614b65565b80602083010160043d038501811115614b4d575050505050614b65565b614b5c82602001850186614443565b82955050505050505b90565b614b7181614349565b8114614b7c57600080fd5b50565b614b888161435b565b8114614b9357600080fd5b50565b614b9f8161436d565b8114614baa57600080fd5b50565b614bb681614379565b8114614bc157600080fd5b50565b614bcd816143c5565b8114614bd857600080fd5b5056fea26469706673582212205daf93588404d6453a484d5f502930be769aca80e15bb955f787586d5946573864736f6c63430008040033",
  "linkReferences": {},
  "deployedLinkReferences": {}
}